:1000000000000320D501000051020000DB71010057
:1000100055020000570200005902000000000000D5
:1000200000000000000000000000000011040000BB
:100030005D0200000000000041040000890501008D
:10004000BF6E0100C76E0100CF6E0100D76E0100C8
:10005000DF6E0100E76E0100EF6E0100F76E010038
:10006000FF6E0100076F01000F6F0100176F0100A5
:100070001F6F0100276F01002F6F0100376F010014
:100080003F6F0100476F01004F6F0100576F010084
:100090005F6F0100676F01006F6F0100776F0100F4
:1000A0007F6F0100876F01008F6F0100976F010064
:1000B0009F6F0100A76F0100AF6F0100B76F0100D4
:1000C000BF6F0100C76F0100CF6F0100D76F010044
:1000D000DF6F0100E76F0100EF6F0100F76F0100B4
:1000E000FF6F0100077001000F7001001770010021
:1000F0001F700100277001002F7001003770010090
:100100003F700100477001004F70010057700100FF
:100110005F700100677001006F700100777001006F
:100120007F700100877001008F70010097700100DF
:100130009F700100A7700100AF700100B77001004F
:10014000BF700100C7700100CF700100D7700100BF
:10015000DF700100E7700100EF700100F77001002F
:10016000FF700100077101000F710100177101009C
:100170001F710100277101002F710100377101000B
:100180003F710100477101004F710100577101007B
:100190005F71010067710100E0F1010000000020C3
:1001A00068000000E0F101000000FF1F00000000F7
:1001B000E0F10100000000140000000070000020C9
:1001C000C0E600000000FF1F000000000000001457
:1001D0000000000072B614F0EBFC0E4B07E003F1D8
:1001E0000C049A685968186800F01AF823460A4AFD
:1001F0009342F4D306E01C46596854F8080B00F00B
:100200001EF82346054A9342F5D362B61AF05BF80E
:10021000FEE700BF98010000BC010000D40100000F
:10022000002393420AD210B450F8044B41F8044B17
:1002300004339342F8D35DF8044B704770470023B2
:1002400003E0002240F8042B04338B42F9D37047BB
:10025000FEE7FEE7FEE7FEE7FEE7FEE7FEE7FEE776
:10026000FEE7FEE7FFFFFFFFFFFFFFFFFFFFFFFFD0
:10027000FFFFFFFFFFFFFFFFFFFFFFFFFFFFFFFF8E
:10028000FFFFFFFFFFFFFFFFFFFFFFFFFFFFFFFF7E
:10029000FFFFFFFFFFFFFFFFFFFFFFFFFFFFFFFF6E
:1002A000FFFFFFFFFFFFFFFFFFFFFFFFFFFFFFFF5E
:1002B000FFFFFFFFFFFFFFFFFFFFFFFFFFFFFFFF4E
:1002C000FFFFFFFFFFFFFFFFFFFFFFFFFFFFFFFF3E
:1002D000FFFFFFFFFFFFFFFFFFFFFFFFFFFFFFFF2E
:1002E000FFFFFFFFFFFFFFFFFFFFFFFFFFFFFFFF1E
:1002F000FFFFFFFFFFFFFFFFFFFFFFFFFFFFFFFF0E
:10030000FFFFFFFFFFFFFFFFFFFFFFFFFFFFFFFFFD
:10031000FFFFFFFFFFFFFFFFFFFFFFFFFFFFFFFFED
:10032000FFFFFFFFFFFFFFFFFFFFFFFFFFFFFFFFDD
:10033000FFFFFFFFFFFFFFFFFFFFFFFFFFFFFFFFCD
:10034000FFFFFFFFFFFFFFFFFFFFFFFFFFFFFFFFBD
:10035000FFFFFFFFFFFFFFFFFFFFFFFFFFFFFFFFAD
:10036000FFFFFFFFFFFFFFFFFFFFFFFFFFFFFFFF9D
:10037000FFFFFFFFFFFFFFFFFFFFFFFFFFFFFFFF8D
:10038000FFFFFFFFFFFFFFFFFFFFFFFFFFFFFFFF7D
:10039000FFFFFFFFFFFFFFFFFFFFFFFFFFFFFFFF6D
:1003A000FFFFFFFFFFFFFFFFFFFFFFFFFFFFFFFF5D
:1003B000FFFFFFFFFFFFFFFFFFFFFFFFFFFFFFFF4D
:1003C000FFFFFFFFFFFFFFFFFFFFFFFFFFFFFFFF3D
:1003D000FFFFFFFFFFFFFFFFFFFFFFFFFFFFFFFF2D
:1003E000FFFFFFFFFFFFFFFFFFFFFFFFFFFFFFFF1D
:1003F000FFFFFFFFFFFFFFFFFFFFFFFFFFFFFFFF0D
:10040000FFFFFFFFFFFFFFFFFFFFFFFFFEFFFFFFFD
:10041000074B19680868B0E8F04F80F30988BFF30C
:100420006F8F4FF0000080F311887047AFF30080AA
:10043000D8E3002000BF00BFFFFFFFFFFFFFFFFF6B
:10044000EFF30980BFF36F8F154B1A681EF0100F82
:1004500008BF20ED108A20E9F04F10602DE9090057
:100460004FF0200080F31188BFF34F8FBFF36F8FE1
:1004700011F092F84FF0000080F3118809BC196860
:100480000868B0E8F04F1EF0100F08BFB0EC108AFB
:1004900080F30988BFF36F8F704700BFAFF3008010
:1004A000D8E3002000BF00BF80B582B000AF786005
:1004B0007968024815F0B9FE00BEFDE708AA010000
:1004C00080B584B000AF786039607B68002BFCD0C9
:1004D0003B68002B01D1002313E00C4B1B68002B61
:1004E00001D100230DE03A687968094819F04CFE03
:1004F0000346FB81FB89002B01D13B6801E04FF0F3
:10050000FF3318461037BD4680BD00BF104E002097
:10051000084E002080B58EB000AFB9607B60034606
:10052000FB731346BB730023FB867B687B61BB6850
:10053000BB6100233B7700237B770123BB7701233B
:10054000FB77002387F82030002387F82130FB7BDE
:1005500087F82230BB7B87F82C3048F64173FB8547
:10056000BB7B012B03D107F114033B6317E0BB7B7B
:10057000022B03D143F22153FB8610E0BB7B032BFC
:1005800003D143F22153FB8609E0BB7B042B03D14B
:1005900043F22153FB8602E043F22153FB86FB8E9C
:1005A00043F22152934230D020220021194819F001
:1005B00093FE184B184A1A60164B1B6807F1240269
:1005C0001146184619F058FD0346FB86FB8E002B9A
:1005D000FCD1124B1B780F4B1B681149184619F0C0
:1005E0007BFD0346FB86FB8E002BFCD1094B1B6871
:1005F0000C49184619F098FD0346FB86FB8E002B2C
:10060000FCD1044B1B68084A1360FB8E1846383730
:10061000BD4680BDF04D0020F44D00201EE70020B7
:10062000084E00200C4E0020104E002080B5A4B0D3
:1006300000AF786039600023C7F888300023C7F81E
:100640008C300023BB6007F10C037C22002118468C
:1006500019F042FE0E4B1B68002B12D007F1080266
:100660000C4B3968786816F0E2F9C7F88800D7F8BB
:10067000882007F1080311461846FFF721FFC7F845
:100680008C00D7F88C3018469037BD4680BD00BF2F
:10069000104E0020C561010080B487B000AF7860C3
:1006A0007B681B687B6100233B610023FB734CE08C
:1006B0007B6901337B617B691B78203B102B3ED823
:1006C00001A252F823F000BF210700003F070000FD
:1006D0003F070000350700003F0700003F0700000C
:1006E0003F0700003F0700003F0700003F070000F2
:1006F0003F070000170700003F0700000D0700003C
:100700003F0700003F0700002B0700003B6943F054
:1007100001033B6119E03B6943F002033B6114E0D4
:100720003B6943F004033B610FE03B6943F008037E
:100730003B610AE03B6943F010033B6105E07B69E4
:10074000013B7B610123FB7300BFFB7B83F0010353
:10075000DBB2002BACD17B687A691A603B69184622
:100760001C37BD465DF8047B704700BF80B584B080
:1007700000AF7860002109480EF0B8FF0346FB7314
:1007800097F90F30002B05D097F90F301946044820
:1007900015F04BFD00BF1037BD4680BDF10C0000C9
:1007A0001CAA010080B582B000AF0346FB71054969
:1007B000054815F03AFD054AFB79137000BF08376C
:1007C000BD4680BD0000002060AA01001FE7002098
:1007D00080B483B000AF7860044A7B68136000BFC8
:1007E0000C37BD465DF8047B704700BF1C0000203D
:1007F00080B582B000AF00210E480EF077FF0346AF
:10080000FB7197F90730002B09D097F9073019468B
:10081000094815F00AFD02E0322010F0D3FC00F088
:10082000ADF80346002BF7D100BF00BF0837BD4627
:1008300080BD00BF710C000084AA010080B586B0A5
:1008400002AF7860464B1B68464A02FB03F3464AF8
:10085000A2FB03239909454B00930023012244483E
:1008600019F0F8F8F86003220021012018F0F9FCD3
:10087000B860404B1B78032B6DD801A252F823F0CF
:10088000910800009D080000C5080000F108000064
:10089000FFF7AEFF374B01221A7060E0F86819F0DD
:1008A00047F90346002B09D04FF0FF330093002394
:1008B00000220321F86811F0B5FB50E00A2010F087
:1008C00081FC4CE0F86819F033F90346002B0BD19A
:1008D00010F0A8FD02464FF0FF33009300230121E2
:1008E000F86811F09FFB3AE00A2010F06BFC36E04C
:1008F000F86819F01DF90346002B11D0184B1B683E
:100900004FF47A7203FB02F24FF0FF33009300239F
:100910000421F86811F086FB164B02221A701EE0C3
:100920000F4B1B684FF47A7203FB02F24FF0FF3358
:10093000009300230421F86811F074FB4FF0FF339B
:100940000093002300220321F86811F06BFB094B90
:1009500001221A7003E0084815F067FC00BF88E721
:100960001C00002040420F00D34D62106D070000B4
:10097000C4AA01001FE70020D8AA010080B400AF7C
:10098000034B1B889BB21846BD465DF8047B70473D
:100990005C00002080B584B000AF78600B46FB702F
:1009A0007B68FB6097F90330002B04D1F968074896
:1009B00015F03BFC06E097F903301A46F968044845
:1009C00015F033FC00BF1037BD4680BD10AB0100F1
:1009D00030AB010080B584B000AFF860B9607A60D8
:1009E000BA687968074815F020FC322200210648D1
:1009F00019F072FCB968044819F0F2FC00BF103716
:100A0000BD4680BD60AB0100404E002080B586B081
:100A100000AFF860B96011461A460B46FB801346DA
:100A20007B711E491E4819F0B8FC0346002B18D1F3
:100A3000FB881A461B49B86819F017FD0346002BBE
:100A400003D10220FFF7AEFE0BE0FB881A461649E1
:100A5000B86819F00AFD0346002B02D10120FFF708
:100A6000A1FE12490E4819F098FC0346002B11D143
:100A7000B86815F07DFA03467B617B69002B06D0D0
:100A80007869FFF7A5FE0320FFF78CFE02E0084817
:100A900015F0CBFB00BF1837BD4680BD88AB010009
:100AA000404E0020A4AB0100ACAB0100B4AB010090
:100AB000CCAB010080B588B002AF78602A4A07F15C
:100AC000080392E8030083E80300284B284A2949D9
:100AD00078680EF0CDF900237B613CE0264A7B6903
:100AE00052F823107B699B0018333B4453F8103CA9
:100AF000DAB221487B6950F823300120019000933D
:100B00001E4B78680EF0ECF80346FB7497F913302F
:100B1000002B0ED1184A7B6952F823107B699B0089
:100B200018333B4453F8103C1A46154815F07DFB2A
:100B30000EE0114A7B6952F823107B699B00183341
:100B40003B4453F8102C97F913300E4815F06DFB09
:100B50007B6901337B617B69012BBFD900BF00BF7B
:100B60001837BD4680BD00BF5CAC0100F4AA01008F
:100B70000D0A0000D509000038000020950900008A
:100B8000F0AB010020AC010080B586B000AFF8608A
:100B9000B9601346FB80BB687B612E4AFB881380DB
:100BA000FB8840F20112934227D0B3F5817F3FDAF0
:100BB000B3F5807F14D0B3F5807F39DC002B05D0EE
:100BC000002B35DB013B042B32D823E07B691B680B
:100BD0001946214815F029FBF868FFF76BFF35E04F
:100BE0007B691B6819461D4815F01FFB00221C4934
:100BF0004FF47A700CF042FC28E07B691B681946C0
:100C0000184815F012FB002215494FF47A700CF0C9
:100C100035FC1BE07B691B68FA881946124815F001
:100C200004FB00220E4942F210700CF027FC0DE08C
:100C30007B691B68FA8819460C4815F0F6FA002201
:100C4000074942F210700CF019FC00BF00BF1837C2
:100C5000BD4680BD5C00002070AC010090AC01007E
:100C6000710C0000B4AC0100DCAC010008AD010067
:100C700080B584B002AF78600B4803F0AFFE034646
:100C800019460A4815F0D1FA094B1868094B019327
:100C9000084B0093084B40F25B7203490EF006F9D3
:100CA00000BF0837BD4680BD744E002034AD010042
:100CB000144E0020F4AA0100890B000080B584B016
:100CC00000AF78600B46FB707B68FB6097F90330E0
:100CD000002B06D097F903301A46F968034815F03F
:100CE000A4FA00BF1037BD4680BD00BF5CAD010057
:100CF00090B589B004AF78600023BB6000233B73DC
:100D0000554815F092FA554B1B781A4607F108031F
:100D10005349184615F008F8524B1C6807F10803B0
:100D2000184619F07EFB03469BB207F108024E49B4
:100D300003914E49029100210191012100914A49FC
:100D400020460DF005FF4A4B1B781A46434B1B7893
:100D5000D21A07F108034249184614F0E5FF414B47
:100D60001C6807F10803184619F05BFB03469BB2A9
:100D700007F108023F4903913C490291002101918A
:100D8000012100913B4920460DF0E2FE334B1B78D8
:100D90005B00374A12789B1A184619F0FAFA024695
:100DA00007F108032E49184614F0BEFF2D4B1C68AE
:100DB00007F10803184619F034FB03469BB207F10C
:100DC00008022D4903912949029100210191012135
:100DD0000091294920460DF0BBFE204B1B785B009B
:100DE000234A12789B1A184619F0D3FA024607F1E3
:100DF00008031B49184614F097FF1A4B1C6807F1AB
:100E00000803184619F00DFB03469BB207F10802D0
:100E10001A49039115490291002101910121009184
:100E2000164920460DF094FE0C4B1B780133DAB2C4
:100E30000A4B1A70094B1B78114AA2FB0312520984
:100E4000642101FB02F29B1ADAB2044B1A7000BF54
:100E50001437BD4690BD00BF88AD010020E70020DB
:100E6000A4AD0100144E0020A8AD0100BD0C00008F
:100E700062000020C0AD0100DCAD0100F8AD010052
:100E80001F85EB5180B588B002AF78607B68FB604E
:100E9000364815F0CAF9FB6893F82D3003F00103CA
:100EA000DBB2002B03D0FB681B6A7B6101E00023EF
:100EB0007B61142017F01FF97B69002BEBD07B6955
:100EC0005B790A2BE7D1FB680433184603F086FDF3
:100ED00003461946264815F0A8F9FB68083318465A
:100EE00003F07CFD03461946224815F09EF9FB6885
:100EF0000C33184603F072FD034619461E4815F0E0
:100F000094F91E491E4803F041FC0346002B02D011
:100F10000023FB7409E01A491A4815F086F91749AD
:100F200017480EF033FA0346FB7497F91330002B81
:100F300005D097F913301946134815F076F90223B6
:100F400000934FF480630022104911480FF008F914
:100F50000346002B02D10F480FF098F8002010F044
:100F60009DF800BF1837BD4680BD00BF14AE01001C
:100F700038AE010054AE01006CAE0100744E00208A
:100F800088AE01009CAE0100B0AE01003D0800003B
:100F9000D4AE0100E0AE010080B58AB004AF3B1DC5
:100FA000184616F0E4F83869FB68BA687968029167
:100FB0000192009303460A4A28210A4814F0EAFEE7
:100FC00078617B69002B02DB7B69272B04D9796967
:100FD000054815F02AF9FEE700BF1837BD4680BD69
:100FE00004AF0100184E002020AF010080B58CB086
:100FF00004AF7860334A07F1080307CA83E80700A3
:10100000FFF7CAFF002011F0D9FC03462E4A5360B7
:101010000023FB610023BB6100237B6100210020D2
:101020000EF090FB0FF0CEF817F015FC0346274AA0
:1010300013600FF0E3F8254B1B68002B03D1244805
:1010400015F0F3F8FEE707F1140007F1180207F1B5
:101050001C01204B0293204B019307F108030093DE
:1010600003461E480EF024FA00221D491B480EF0CC
:1010700057FA00221B4919480EF052FA1A4A002169
:1010800016480EF04DFA194815F0CFF8184815F02B
:10109000CCF8184815F0C9F8032300934FF4806387
:1010A0000E4A154915480FF05BF80346002B02D194
:1010B00013480EF0EBFF00200FF0F0FF00BF2037C9
:1010C000BD4680BD64AC010020000020144E00200D
:1010D00038AF0100A9F6000031000100784E002071
:1010E0004D6F00006D6F0000751D000054AF0100D2
:1010F0008CAF0100A4AF0100850E0000D8AF010045
:10110000E4AF010080B584B002AF124B7B6019F0F0
:10111000D4F819F095F819F082F87B681B6823F071
:1011200001027B681A60032300934FF4806300225E
:1011300009490A480FF014F80346002B02D1084869
:101140000EF0A4FF10F072F8002318460837BD46D1
:1011500080BD00BF00D00040ED0F000008B00100CE
:1011600010B0010080B586B000AF786039604FF4F0
:101170007A737B6100233B610023FB607B685B68C3
:10118000184616F040F83B681A687B681A607B685E
:1011900058687B68196807F10C03022216F054F8AE
:1011A00038613B69002B01D03B6968E07B69013BFA
:1011B0007B61FB68222B02D07B69002BE7D17B6926
:1011C000002B01D101235AE07B6858687B681968BD
:1011D0004FF40043002216F023F838613B69002BDE
:1011E0004CD13B689B79002B17D07B6858687B6893
:1011F000196840F2E113042216F012F838613B69D5
:10120000002B3BD17B6858687B6819684FF490537A
:10121000002216F005F8386130E03B681B79012B9D
:1012200002D91948FFF740F97B6858687B6819684C
:1012300007F10C03002216F007F838613B69002B18
:1012400001D03B691BE0FB6823F48063FB607B6893
:1012500058687B681968FB68002215F0E1FF386167
:101260003B69002B01D03B6909E03B6819793B6879
:101270005B791A46786800F0ABF838613B6918462C
:101280001837BD4680BD00BF50B0010080B584B0A6
:1012900000AF786039603B68002B02D10F48FFF740
:1012A00003F93B6800221A707B6858687B681968EC
:1012B00007F10803012215F0C7FFF860FB68002B57
:1012C00007D1BB6803F02003002B02D03B6801224A
:1012D0001A70FB6818461037BD4680BD88B0010003
:1012E00080B584B000AF786039603B68002B02D1D4
:1012F0001048FFF7D9F87B6858687B68196807F1D0
:101300000803012215F0A0FFF860FB68002B0BD149
:10131000BB6803F00403002B03D03B6801221A7062
:1013200002E03B6800221A70FB6818461037BD4681
:1013300080BD00BFA8B0010080B588B000AFF860E4
:10134000B9607A60BB68002B05D17B68002B02D1A5
:101350001E48FFF7A9F8FB685868FB68196807F191
:1013600014031E2215F070FFF861FB69002B27D1D2
:10137000BB68002B10D07B6903F00703BB61BB691E
:10138000022B02D0BB69062B03D1BB6801221A7065
:1013900002E0BB6800221A707B68002B10D07B69CA
:1013A00003F00703BB61BB69052B02D0BB69062BA9
:1013B00003D17B6801221A7002E07B6800221A7058
:1013C000FB6918462037BD4680BD00BFC8B001008C
:1013D00080B584B000AF78600B46FB701346BB70DD
:1013E000FB78012B02D91D48FFF75EF87B6858682F
:1013F0007B68196807F10803002215F025FFF860E3
:10140000FB68002B24D1BB6823F48053BB60FB78BE
:10141000012B04D1BB6843F40053BB6003E0BB68FD
:1014200023F40053BB60BB78012B04D1BB6843F4A9
:101430008073BB6003E0BB6823F48073BB607B6890
:1014400058687B681968BB68002215F0E9FEF860EF
:10145000FB6818461037BD4680BD00BF08B10100CB
:1014600080B584B000AF7860084611461A4603463E
:10147000FB700B46BB7013467B70FB78012B02D9C7
:101480004848FFF711F8BB78012B02D94648FFF70F
:101490000BF87B78002B46D0FB78002B13D1BB7860
:1014A000012B03D14FF4C243BB6002E04FF48243EF
:1014B000BB607B6858687B681968BB68002215F0C0
:1014C000AFFE034669E0BB78012B02D03748FEF738
:1014D000EBFF4FF4C243BB607B6858687B681968B8
:1014E000BB68002215F09CFEF860FB68002B01D061
:1014F000FB6852E07B6858687B68196807F108034D
:101500001F2215F0A1FEF860FB68002B44D17B6818
:1015100058687B681968BB6843F004031F2215F004
:101520007FFE034639E0FB78002B1CD17B685868AE
:101530007B68196807F10803002215F085FEF86042
:10154000FB68002B28D1BB6823F48043BB607B6819
:1015500058687B681968BB6843F40073002215F073
:101560005FFE034619E07B6858687B68196807F1DD
:1015700008031F2215F068FEF860FB68002B0BD1F2
:101580007B6858687B681968BB6823F004031F22D6
:1015900015F046FE034600E0FB6818461037BD46CE
:1015A00080BD00BF38B1010068B1010098B10100F1
:1015B00080B586B000AF78607B687B617B691B6813
:1015C0003B61386911F062FDF860094AFB6852F826
:1015D0002330184615F072FE7B695B6800221946BD
:1015E000386912F05FFA00BF1837BD4680BD00BFF2
:1015F000C8E5010080B588B000AFF860B9607A60D6
:101600003B603B68002B02D11648FEF74DFFFB689C
:10161000FB61FB691B68BB6100237B614FF4000128
:10162000B86915F07EFE02237A68B968B86918F0C7
:10163000F8FBB86915F0B1FE78617B69002B01D029
:101640007B690BE0B86915F053FE02463B681A60EF
:101650004FF40001B86915F064FE7B691846203725
:10166000BD4680BDDCB1010080B586B000AF7860BA
:1016700039600E23FB820EF0E7FD7B685B890E2B41
:101680006ED97B68DB7B002B06D13B6893F830304A
:101690000133DAB27B68DA737B685B683B613B6974
:1016A0001A7B5B7B1B021343FB813B691B7803F0B6
:1016B0000103002B23D03B691B78012B0FD13B6921
:1016C0005B78002B1BD13B699B785E2B17D17B6825
:1016D0005B7B43F01003DAB27B685A730FE03B691F
:1016E00006222849184618F011FE0346002B06D1A1
:1016F0007B685B7B43F00803DAB27B685A73FB8933
:10170000082B03D0B3F5C16F14D032E03B6893F8D7
:101710002D3003F00803002B24D0FB8A194678688B
:1017200005F09CFE0346002B1ED13968786802F054
:10173000C5FD13E03B6893F82D3003F00803002B40
:1017400014D0FB8A1946786805F088FE0346002B02
:101750000ED13968786801F05BFF00BF00230CE010
:1017600000BF06E000BF04E000BF02E000BF00E0F1
:1017700000BF786805F0BCFE002318461837BD4648
:1017800080BD00BF04B2010080B586B000AFF86034
:10179000B9607A603B603B8C184615F0ADFF03469C
:1017A000FB820E21B86816F0A6FB0346002B23D15E
:1017B0000EF04AFDBB685B683B613B69FA8A9A811F
:1017C0003B6906223968184618F084FD3B690633E8
:1017D00006227968184618F07DFDFB6893F82C30D6
:1017E000062B02D008480EF051FCFB689B69B968D3
:1017F000F8689847034602E000BF6FF001031846FF
:101800001837BD4680BD00BF14B2010080B500AFDF
:101810001E4B1B78002B30D11D4B1B68002B02D0B8
:101820001C480EF033FC16F043FD0346184A1360C3
:10183000174B1B68002B02D14FF0FF3324E0144BF1
:101840001B685A7A124B1B6842F02002D2B25A72BD
:101850000F4B1B684422104918460CF057FA0C4BEA
:101860001B6843220C4918460CF0D8FA084B1B6839
:1018700000220A4918460CF03DFB044B1B7801334B
:10188000DAB2024B1A700023184680BD21E700200F
:10189000E04E002048B20100A4B70100ED2C00008A
:1018A00080B500AF0D4B1B78002B02D10C480EF019
:1018B000EDFB0A4B1B78013BDAB2084B1A70074B61
:1018C0001B78002B07D1074B1B6818460CF032FB26
:1018D000044B00221A6000BF80BD00BF21E700203A
:1018E00070B20100E04E002080B584B000AF786097
:1018F0007B681B6AFB600C21F86815F0FCFD064B49
:10190000054A0549786805F0D5FA786800F0AEFA1E
:1019100000BF1037BD4680BDA4B7010080B584B0BC
:1019200000AF786039607B681B6AFB600C4B9B786A
:10193000002B11D0FB6800221A810A4B9B681846C5
:1019400015F0EFFE0246FB689A613B681A69FB6876
:10195000DA61786800F008F800BF1037BD4680BD36
:10196000D44E0020AC4E0020B0B58AB002AF7860F3
:101970007B68002B08D1704814F057FC6F4814F0B6
:1019800054FC6FF00F03D2E07B681B6ABB61BB693C
:10199000002B08D16A4814F048FC684814F045FC54
:1019A0006FF00503C3E00121B86915F0A4FD07F14C
:1019B0000C030322B969786801F056FA78617B69F3
:1019C000002B00F085807B695B683B61B8893B69CF
:1019D00003F1F0010223392200F046FE0346BB81E9
:1019E000B8893B6903F1F0017B689B8C1A4600F0D3
:1019F00085FE0346BB81B8893B6903F1F0010423EE
:101A0000322200F031FE0346BB81BC893B6903F101
:101A1000F005BB69DB69184615F083FE03461A46DC
:101A20002946204600F094FE0346BB81B8893B69F5
:101A300003F1F0010423362200F016FE0346BB81B9
:101A4000BC893B6903F1F005BB699B69184615F039
:101A500068FE03461A462946204600F079FE0346F2
:101A6000BB81B8893B6903F1F0010423372200F000
:101A7000FBFD0346BB810023FB770EE0B8893B6981
:101A800003F1F001FB7F2F4AD35C1A4600F018FEE9
:101A90000346BB81FB7F0133FB77FB7F032BEDD933
:101AA000B8893B69F0337A69194615F03EFD264B3B
:101AB0001868264B01937B6800934323244A796975
:101AC0000CF02EF80346BB77786905F011FD01E0B4
:101AD000FF23BB77BB699B79FF2B05D0BB699B7943
:101AE0000133DAB2BB699A71BB699B79052B0DD8BA
:101AF000BB699B791A46012393409BB21A46520157
:101B0000D21A92001344DB009BB201E04EF6602330
:101B1000FB81FB8903F2F3130E4A82FB031252117D
:101B2000DB17D31A9AB2BB691A8197F91E3018468F
:101B30002037BD46B0BD00BF94B2010080AA0100AD
:101B4000B0B2010040000020E04E0020A4B7010028
:101B5000A8B70100D34D621080B582B000AF274B0B
:101B60001B687B6042E07B681B6A3B603B68002B24
:101B700039D03B685B79002B35D03B689B8A002BC2
:101B800012D03B685B8A01339AB23B685A823B6849
:101B90005A8A3B689B8A9A4206D1786800F0C4FC56
:101BA000786800F0E7F81EE03B681B8A002B0BD03A
:101BB0003B681B8A5A1E91B23A681182012B03D1ED
:101BC000786815F066FC0EE03B68DB89002B0AD0D4
:101BD0003B68DB895A1E91B23A68D181012B02D150
:101BE000786815F028FC7B681B687B607B68002B9D
:101BF000B9D100BF00BF0837BD4680BD48DB00201B
:101C000080B582B000AF164B1B687B6020E07B681C
:101C10001B6A3B603B68002B17D03B681B89012B7C
:101C200006D93B681B89013B9AB23B681A810CE0DC
:101C30003B681B89012B08D13B681B89013B9AB289
:101C40003B681A81786815F0BDFB7B681B687B6078
:101C50007B68002BDBD100BF00BF0837BD4680BDCD
:101C600048DB002080B586B000AF786039607B68C3
:101C70001B6A3B613B6900221A623B6900225A627F
:101C80003A4BDB78002B03D0394BDA683B699A6218
:101C9000364B1B79002B04D0354B1A693B69DA624D
:101CA00004E03B699B6A5A083B69DA622F4B5B7917
:101CB000002B04D02E4B5A693B691A6307E03B693D
:101CC0009A6A1346DB009B1ADA083B691A633B6881
:101CD0001A693B69DA61254B9B79002B0FD0244BA5
:101CE0009B69184615F01DFD02463B691A623B6967
:101CF000DB7943F00103DAB23B69DA7106E03B6954
:101D0000DB7923F00103DAB23B69DA71174BDB7937
:101D1000002B07D0164BDB69184615F002FD024672
:101D20003B695A620023FB7513E0FB7D0833104AC0
:101D300052F82330184615F0F4FC0346FB6007F117
:101D40000C02FB7D1146184603F0B4FCFB7D013309
:101D5000FB75FB7D012B05D8FB7D0833034AD35C63
:101D6000002BE2D100BF1837BD4680BDD44E002005
:101D7000AC4E002080B584B000AF78600EF064FAFD
:101D80007B68002B08D1364814F04FFA354814F020
:101D90004CFA6FF00F035FE07B6893F82D3003F08F
:101DA0000103002B08D1304814F03FFA2D4814F0FD
:101DB0003CFA6FF00F034FE07B681B6AFB607B68A7
:101DC0009B8CB3F5107F02D24FF0FF3344E0FB68E9
:101DD000002B0DD1342004F0C7FDF860FB68002B08
:101DE00002D14FF0FF3337E07B68FA681A6205E0F2
:101DF000FB681B79002B01D0FFF752FD3422002134
:101E0000F86818F069FAFFF701FD0346002B02D0CD
:101E10004FF0FF3320E0FB6801221A717B6893F8D2
:101E20002D3003F00403002B05D10221F86815F0D2
:101E300062FB002310E0786800F018F80346FB729C
:101E400097F90B30002B05D0786800F06DFB4FF050
:101E5000FF3301E097F90B3018461037BD4680BDBF
:101E6000CCB2010080AA010010B3010080B58AB095
:101E700002AF78607B681B6ABB610023FB75BB699E
:101E80000022DA610621B86915F035FB07F1080375
:101E90000122B969786800F0E7FF38613B69002BDF
:101EA0004BD03B695B68FB603889FB6803F1F0014C
:101EB0000223392200F0D8FB03463B813889FB68B6
:101EC00003F1F0017B689B8C1A4600F017FC034677
:101ED0003B813889FB6803F1F0010423372200F0CD
:101EE000C3FB03463B810023FB770EE03889FB6888
:101EF00003F1F001FB7F294AD35C1A4600F0E0FBB6
:101F000003463B81FB7F0133FB77FB7F032BEDD93E
:101F10003889FB68F0333A69194615F006FB204B07
:101F20001868204B01937B68009343231E4A39694C
:101F30000BF0F6FD386905F0DBFABB699B79FF2BE6
:101F400005D0BB699B790133DAB2BB699A71BB6971
:101F50009B79052B0DD8BB699B791A4601239340C9
:101F60009BB21A465201D21A92001344DB009BB274
:101F700001E04EF660237B817B8903F2F3130B4A69
:101F800082FB03125211DB17D31A9AB2BB691A8172
:101F900097F9173018462037BD4680BD4000002015
:101FA000E04E0020A4B70100A8B70100D34D621095
:101FB00080B588B000AF78607B68002B06D15E48A2
:101FC00014F033F95D4814F030F9B1E07B681B6A16
:101FD000FB61FB69002B06D1594814F026F95748DC
:101FE00014F023F9A4E0FB6900225A82FB699B6A82
:101FF000B3F1FF3F19D0FB699B6A1E33514AA2FB24
:1020000003235B09BB61BB69B3F5803F02D34FF685
:10201000FF73BB61BB699AB2FB699A82FB699B8AB9
:10202000002B02D1FB6901229A82FB69DB6AB3F1C2
:10203000FF3F1DD0FB69DB6A1E33424AA2FB03232C
:102040005B09BB61BB69B3F5803F02D34FF6FF73F9
:10205000BB61BB699AB2FB695A81FB695B89002B42
:1020600002D1FB6901225A81FB695A89FB69DA8135
:10207000FB691B6BB3F1FF3F1DD0FB691B6B1E336C
:10208000304AA2FB03235B09BB61BB69B3F5803F08
:1020900002D34FF6FF73BB61BB699AB2FB699A81A9
:1020A000FB699B89002B02D1FB6901229A81FB69A4
:1020B0009A89FB691A82FB695A89FB699B899A4252
:1020C00006D3FB699B89002B02D0FB6900225A8151
:1020D000FB69DB7903F00103002B03D0FB691B6A6A
:1020E0003B6114E0FB691C331B78FB7597F91730D3
:1020F000002B02DBFF233B6109E0FB7DBF2B03D9F3
:102100006FF07F433B6102E04FF6FF733B61FB6979
:102110005B6AFB600A21F86915F0EDF9FB6903F1D0
:102120001C0107F10C0307F11002786804F0C2FEED
:102130002037BD4680BD00BF34B3010080AA010036
:1021400050B301008988888880B58AB002AF786072
:102150007B681B6ABB610EF077F80521B86915F042
:10216000CAF907F10C030322B969786800F07CFE14
:1021700078617B69002B4ED07B695B683B61B889D5
:102180003B6903F1F0010223392200F06DFA0346A6
:10219000BB81B8893B6903F1F0017B689B8C1A46CF
:1021A00000F0ACFA0346BB81B8893B6903F1F0014A
:1021B0000423372200F058FA0346BB810023BB7783
:1021C0000EE0B8893B6903F1F001BB7F2A4AD35C7A
:1021D0001A4600F075FA0346BB81BB7F0133BB771B
:1021E000BB7F032BEDD9B8893B69F0337A69194677
:1021F00015F09BF9214B1868BB6903F118027B6845
:102200000093432379690BF01DFC0346FB77786943
:1022100005F06EF901E0FF23FB77BB699B79FF2B8B
:1022200005D0BB699B790133DAB2BB699A71BB698E
:102230009B79092B0AD8BB699B799BB21A4652013C
:10224000D21A920013441B019BB201E044F62063B2
:10225000FB81FB8903F2F313094A82FB031252113B
:10226000DB17D31A9AB2BB691A8197F91F30184647
:102270002037BD4680BD00BF40000020E04E00205A
:10228000D34D621080B58AB002AF78607B681B6A5C
:10229000BB610421B86915F02EF907F10C03032284
:1022A000B969786800F0E0FD78617B69002B4CD05B
:1022B0007B695B683B61B8893B6903F1F0010223EC
:1022C000392200F0D1F90346BB81B8893B6903F19B
:1022D000F0017B689B8C1A4600F010FA0346BB8124
:1022E000B8893B6903F1F0010423372200F0BCF9FF
:1022F0000346BB810023BB770EE0B8893B6903F13D
:10230000F001BB7F294AD35C1A4600F0D9F9034695
:10231000BB81BB7F0133BB77BB7F032BEDD9B88972
:102320003B69F0337A69194615F0FFF8204B1868BD
:102330007B68009343231F4A79690BF083FB0346B4
:10234000FB77786905F0D4F801E0FF23FB77BB69E0
:102350009B79FF2B05D0BB699B790133DAB2BB694E
:102360009A71BB699B79092B0AD8BB699B799BB28F
:102370001A465201D21A92001344DB009BB201E0CC
:1023800042F21073FB81FB8903F2F3130A4A82FBCA
:1023900003125211DB17D31A9AB2BB691A8197F94B
:1023A0001F3018462037BD4680BD00BF40000020CA
:1023B000E04E0020A8B70100D34D6210B0B58AB03E
:1023C00002AF78607B681B6ABB610321B86915F0B6
:1023D00092F807F10C030322B969786800F044FD14
:1023E00078617B69002B66D07B695B683B61B8894B
:1023F0003B6903F1F0010223392200F035F903466D
:10240000BB81B8893B69F0334FF41072194600F074
:1024100075F90346BB81B8893B6903F1F0010423D8
:10242000322200F021F90346BB81BC893B6903F1EC
:10243000F005BB69DB69184615F073F903461A46C7
:102440002946204600F084F90346BB81B8893B69E0
:1024500003F1F0010423372200F006F90346BB81A3
:102460000023BB770EE0B8893B6903F1F001BB7F25
:10247000294AD35C1A4600F023F90346BB81BB7F8F
:102480000133BB77BB7F032BEDD9B8893B69F033B0
:102490007A69194615F049F8204B18687B68009353
:1024A00043231F4A79690BF0CDFA0346FB7778691D
:1024B00005F01EF801E0FF23FB77BB699B79FF2B3A
:1024C00005D0BB699B790133DAB2BB699A71BB69EC
:1024D0009B79092B0AD8BB699B799BB21A4652019A
:1024E000D21A92001344DB009BB201E042F2107357
:1024F000FB81FB8903F2F3130A4A82FB0312521198
:10250000DB17D31A9AB2BB691A8197F91F301846A4
:102510002037BD46B0BD00BF40000020E04E002087
:10252000A8B70100D34D6210B0B58AB002AF786091
:102530007B681B6AFB610DF087FEFB69002B00F0D6
:102540008980FB695B79002B00F08680FB699B69C1
:102550003B61FB6900229A61FB690022DA61FB6939
:1025600000221A62FB6900225A62FB6900221A6388
:10257000FB691A6BFB69DA62FB69DA6AFB699A62CA
:10258000FB6900229A82FB699A8AFB695A82FB697D
:102590005A8AFB691A82FB691A8AFB69DA817868B0
:1025A00014F0F1FF0346002B46D00021F86914F027
:1025B000A2FF07F10E030722F969786800F054FCC6
:1025C000B861BB69002B30D0BB695B687B61F8895F
:1025D0007B6903F1F0010423362200F045F803463D
:1025E000FB81FC897B6903F1F0053B69184615F016
:1025F00098F803461A462946204600F0A9F80346F3
:10260000FB81F8897B69F033BA69194614F08DFFB4
:10261000134B186807F110027B6800934323B969D4
:102620000BF010FAB86904F063FF0E4B0D4A0D4928
:10263000786804F03FFC03E00021F86914F05BFFC8
:10264000FB691B79002B08D0FFF72AF9FB690022F0
:102650001A7102E000BF00E000BF2037BD46B0BDE8
:10266000E04E0020A4B7010080B582B000AF396011
:1026700011461A460346FB800B467B7113463B719D
:10268000FA883B7913440233442B02D90B480DF0EE
:10269000FDFCFB885A1CFA801A463B6813447A7981
:1026A0001A70FB885A1CFA801A463B6813443A7920
:1026B0001A70FB8818460837BD4680BD68B3010014
:1026C00080B582B000AF03463960FB8013467B7152
:1026D000FB88432B02D908480DF0D8FCFB885A1C14
:1026E000FA801A463B6813447A791A70FB881846B8
:1026F0000837BD4680BD00BFACB3010080B582B0D5
:1027000000AF03463960FB801346BB80FB88023371
:10271000442B02D90D480DF0B9FCBB881B0A9AB2B4
:10272000FB88591CF98019463B680B44D2B21A70D9
:10273000FB885A1CFA801A463B681344BA88D2B206
:102740001A70FB8818460837BD4680BDE4B3010007
:1027500080B584B000AF0346B9607A60FB81FB8925
:102760000433442B02D917480DF090FC7B681A0EF5
:10277000FB89591CF9811946BB680B44D2B21A7007
:102780007B681A0CFB89591CF9811946BB680B44FC
:10279000D2B21A707B681A0AFB89591CF981194652
:1027A000BB680B44D2B21A70FB895A1CFA811A46D4
:1027B000BB6813447A68D2B21A70FB891846103786
:1027C000BD4680BD20B4010080B592B000AF7860F6
:1027D000396000233B630023FB620A220021B948D1
:1027E00017F07AFD7B685B892B2B02D86FF0010311
:1027F00072E27B685B68FB61F023BB877B681B89A7
:102800007B877B687B63BB8F7B830CE07B6B5B8907
:10281000BA8FD31ABB877B6B5B897A8FD31A7B877E
:102820007B6B1B687B637B6B002B04D07B6B5B89B2
:10283000BA8F9A42EAD27B6B002B02D16FF0010370
:102840004AE2BB8FA7F846307B8FFB877B6B5B68C8
:102850003B64FFE1B7F846303A6C13441B787B7653
:10286000002387F82A304FF0FF337B62B7F84630F9
:1028700002337B847A8CB7F846309A4202D26FF0EA
:10288000010329E2B7F8463001337A6B528993424B
:1028900008DAB7F8463001333A6C13441B7887F8EE
:1028A0002B300BE07B6B1B68002B04D07B6B1B6811
:1028B0005B681B7800E0002387F82B3097F82B30FB
:1028C00087F82A307B7E3B2B00F2FE8001A252F873
:1028D00023F000BFC5290000D5290000C92A000047
:1028E000E9290000C92A0000C92A0000072A0000BF
:1028F000C92A0000C92A0000C92A0000C92A00000C
:10290000C92A0000C92A0000C92A0000C92A0000FB
:10291000C92A0000C92A0000C92A0000C92A0000EB
:10292000C92A0000C92A0000C92A0000C92A0000DB
:10293000C92A0000C92A0000C92A0000C92A0000CB
:10294000C92A0000C92A0000C92A0000C92A0000BB
:10295000C92A0000C92A0000C92A0000C92A0000AB
:10296000C92A0000C92A0000C92A0000C92A00009B
:10297000C92A0000C92A0000C92A0000C92A00008B
:10298000C92A0000C92A0000C92A0000C92A00007B
:10299000C92A0000C92A0000C92A0000C92A00006B
:1029A000412A0000552A0000752A0000892A0000EB
:1029B000C92A0000C92A0000C92A00009D2A000077
:1029C000B12A0000002387F82B3097F82B3087F8C6
:1029D0002A307DE097F82B30042B02D06FF00503EE
:1029E0007AE106237B6273E0042387F82A3097F8A4
:1029F0002B2097F82A309A4202D26FF005036BE140
:102A000007237B6264E097F82B3003F00303DBB20B
:102A1000002B02D06FF005035EE197F82B30082BF6
:102A200028BF082387F82A3097F82B2097F82A30F8
:102A30009A4202D26FF005034EE108237B6247E021
:102A400097F82B30042B02D06FF0050344E10323E9
:102A50007B623DE097F82B30012B02D06FF005032D
:102A60003AE17B8BF02B02D06FF0050334E10023B9
:102A70007B622DE097F82B30012B02D06FF005031D
:102A80002AE101237B6223E097F82B30042B02D04C
:102A90006FF0050320E102237B6219E097F82B30E9
:102AA000042B02D06FF0050316E104237B620FE0D4
:102AB00097F82B30042B02D06FF005030CE10523AF
:102AC0007B6205E0D44E0020002387F82A3000BF47
:102AD0007B7E002B05D1B7F846300133A7F846308E
:102AE00091E0B7F8462097F82B3013444FF6FD726B
:102AF000934202DD6FF00103EEE097F82B309AB2BB
:102B0000B7F8463013449BB20233A7F8463097F823
:102B10002A30002B77D00023FB607B6A002B02DB7E
:102B20007B6A092B02DD6E480DF0B0FA6D4A7B6AB4
:102B300013441B78002B66D197F82A30042B28BF4A
:102B40000423DBB2FB827B8CFA8A07F10C01786BE1
:102B500004F0CCFE03461A46FB8A934202D06FF083
:102B60000103B9E097F82A30042B2CD997F82A30C2
:102B700003F00303DBB2002B02D06FF00503ABE0E0
:102B8000584A7B6A134401221A70FB68184614F0F5
:102B9000C8FD024654497B6A41F8232097F82A3041
:102BA000043B87F82A307B8C0433BB82BA8A7B8C47
:102BB0009A4202D26FF001038EE0BB8A7B847B6A6B
:102BC00001337B62A9E797F82A30042B06D1FB6812
:102BD000184614F0A6FD0346FB600AE097F82A3079
:102BE000012B02D06FF0050376E007F10C031B7890
:102BF000FB603C4A7B6A134401221A70FA683A4926
:102C00007B6A41F823207B6B5B89B7F846209A42A8
:102C100020D37B6B5B89B7F84620D31AA7F84630E0
:102C20007B6B5B89FA8FD31AFB87B7F84620FB8F43
:102C30009A420CD27B6B1B687B637B6B002B02D1AF
:102C40006FF0050348E07B6B5B683B6402E06FF06C
:102C5000010341E07B6B002B0CD0B7F84620FB8FC3
:102C60009A4207D2B7F846303A6C13441B78FF2BD0
:102C70007FF4F0AD1B4B1B78002B18D01A4B1B6850
:102C80003B61184B00221A703B69012B02D10123D2
:102C90003B630CE03B69022B02D10123FB6206E09F
:102CA0003B69032B03D10123FB6201233B633B6B95
:102CB000002B06D000233B636C23BB87EC237B8770
:102CC0009FE5FB6A002B06D00023FB622C23BB8709
:102CD0006C237B8795E5002318464837BD4680BDA9
:102CE0005CB40100D44E0020AC4E002080B58AB008
:102CF00000AFF860B9607A603B60584B5B68FB617D
:102D0000FB691B6ABB617B685B687B61BB69002BED
:102D100000F08E80BB691B79002B00F089807B68F6
:102D20005B892B2B40F286807B691B78022B40F05D
:102D300083800023FB740DE0FB7CFA69134493F855
:102D40002620FB7C79690B441B7F9A4276D1FB7C61
:102D50000133FB74FB6993F82C30FA7C9A4202D25F
:102D6000FB7C052BE8D97B695B68184614F0D9FC1D
:102D70000246BB691B689A4262D1B9697868FFF75D
:102D800023FD0346002B5DD1354B5B78002B5BD0D8
:102D90007B685B683B62334B5B6887F8273097F84A
:102DA0002730052B1FD1BB695B79012B03D0BB6991
:102DB0005B79032B07D1396AF869FEF753FFF8698D
:102DC000FFF7F6F843E0BB695B79042B03D0BB69DE
:102DD0005B79052B3BD1396AF869FEF743FFF86947
:102DE000FFF7E6F833E097F82730062B13D1BB69DD
:102DF0005B79032B0BD0BB695B79012B07D0BB69D7
:102E00005B79042B03D0BB695B79052B03D1F8698F
:102E1000FEF76AFD1BE097F82730022B16D1BB693D
:102E20005B79062B12D1396AF869FEF777FD0EE05F
:102E300000BF0CE000BF0AE000BF08E000BF06E0F2
:102E400000BF04E000BF02E000BF00E000BF786800
:102E500004F04EFB00BF2837BD4680BD74540020EF
:102E6000D44E0020AC4E002080B588B000AFF86092
:102E7000B9603B601346FB71FB68002B07D15C48CF
:102E800013F0D3F95B4813F0D0F90023ABE0BB6833
:102E9000002B07D1584813F0C8F9564813F0C5F96C
:102EA0000023A0E04FF420724FF49A71362004F012
:102EB000E7F8B861BB69002B01D1002393E0BB693F
:102EC0005B89B3F59A7F02D24C480DF0DFF8FB79AD
:102ED000032B03D1BB685B79032B0CD1BB689B79B7
:102EE000002B04D10DF0E2F80346454A1360444B31
:102EF0001A68BB681A60BB695B687B614FF49A72A1
:102F00000021786917F0E8F97B6901221A707B6962
:102F100001225A70FB6893F82C207B699A70BB6879
:102F20001B68184614F0FDFB02467B695A60FB796A
:102F3000082B10D0FB79042B0DD0FB79072B0AD07E
:102F4000FB79032B0CD1BB685B79052B03D0BB68E5
:102F50005B79042B04D1FB6804331A687B69DA605F
:102F60000023FB830CE0FA8BFB8BF9680A4492F890
:102F700026107A6913440A461A77FB8B0133FB83C8
:102F8000FB8B052BEFD97B69002242F0630283F8AB
:102F9000EC20002262F07D0283F8ED20002242F056
:102FA000530283F8EE20002242F0630283F8EF2000
:102FB0007B6903F1F001012335220020FFF754FB68
:102FC00003467B827B6903F1F001FA797B8A18461C
:102FD000FFF776FB03467B823B68002B02D03B6801
:102FE0007A8A1A80BB6918462037BD4680BD00BF6B
:102FF00070B4010080AA010090B40100B0B40100D7
:10300000E44E002080B582B000AF78602B497A682A
:1030100013465B001344DB000B441B68002B13D0EA
:1030200026497A6813465B001344DB000B441B6897
:10303000184604F05DFA21497A6813465B00134490
:10304000DB000B4400221A601C497A6813465B00BF
:103050001344DB000B44143300221A7017497A68BA
:1030600013465B001344DB000B44123300221A802A
:1030700012497A6813465B001344DB000B440833A3
:1030800000221A600D497A6813465B001344DB0086
:103090000B44043300221A6008497A6813465B0027
:1030A0001344DB000B440833054A043310681860EE
:1030B00092889A8000BF0837BD4680BDE84E002048
:1030C0000CB2010080B582B000AF00237B6096E0B7
:1030D0004F497A6813465B001344DB000B441433FA
:1030E0001B78FB70FB78002B00F0868048497A68DB
:1030F00013465B001344DB000B4412331B8801337F
:1031000098B243497A6813465B001344DB000B44D2
:10311000123302461A803E497A6813465B00134414
:10312000DB000B4412331B88B3F5967F15D2384968
:103130007A6813465B001344DB000B4414331B789E
:10314000012B0ED132497A6813465B001344DB0031
:103150000B4412331B88042B03D97868FFF752FF06
:103160004AE02B497A6813465B001344DB000B44AA
:1031700014331B78032B0AD125497A6813465B0068
:103180001344DB000B44143304221A7034E020494A
:103190007A6813465B001344DB000B4414331B783E
:1031A000042B0AD11A497A6813465B001344DB00EA
:1031B0000B44143302221A701EE015497A68134634
:1031C0005B001344DB000B4414331B78012B13D139
:1031D0000F497A6813465B001344DB000B44083345
:1031E00018687A6813465B001344DB00084A1344EE
:1031F0000433194600F01CFE7B6801337B607B685A
:10320000092B7FF765AF00BF00BF0837BD4680BD03
:10321000E84E002080B58AB000AFF8600B467A60B7
:10322000FB720A233B840A237B840A23BB8400238A
:10323000FB840A23FB830023BB8300237B830023BF
:103240003B830023FB84AAE0B7F926209C49134660
:103250005B001344DB000B4414331B78FB75B7F998
:1032600024300A2B05D1FB7D002B02D1FB8CBB84C3
:1032700091E0FB7D002B00F08E80FB7D012B05D0C3
:10328000FB7D012B02D88F480CF000FFFB68002B60
:1032900020D0FB681968B7F92620894813465B00DF
:1032A0001344DB00034404331B68994212D17B684A
:1032B000002B0CD0B7F92620814913465B0013443C
:1032C000DB000B4408331B687A689A4202D1B7F9D5
:1032D0002630F0E0FB7D012B40D1B7F9262078495C
:1032E00013465B001344DB000B441B68002B1AD011
:1032F000B7F92620724913465B001344DB000B44E8
:1033000012331B88BA8B9A4245D8FB8CFB83B7F9E2
:1033100026206B4913465B001344DB000B44123339
:103320001B88BB8337E0B7F92620654913465B004D
:103330001344DB000B4412331B887A8B9A422AD841
:10334000FB8C3B84B7F926205D4913465B00134490
:10335000DB000B4412331B887B831CE0FB7D012BBD
:1033600019D9B7F92620564913465B001344DB00F0
:103370000B4412331B883A8B9A420CD8FB8C7B840B
:10338000B7F926204E4913465B001344DB000B447B
:1033900012331B883B83FB8C01339BB2FB84B7F950
:1033A0002630092B7FF750AFFB7A03F00203002B86
:1033B00008D1B7F924300A2B07D1FB7A03F00103B7
:1033C000002B02D14FF0FF3375E0B7F92430092B01
:1033D00002DCBB8CFB8431E0B7F92230092B10DC16
:1033E0007B8CFB84B7F92620354913465B001344D8
:1033F000DB000B441B68002B14D033480CF046FE56
:1034000010E0B7F92030092B02DC3B8CFB8409E08B
:10341000B7F91E30092B02DCFB8BFB8402E04FF076
:10342000FF3348E0B7F92630092B02DD27480CF0BE
:103430002DFEB7F926301846FFF7E4FDB7F9263020
:10344000092B02DD21480CF021FEB7F926201C498A
:1034500013465B001344DB000B4414331B78002B32
:1034600002D01B480CF012FEFB68002B0BD0B7F902
:103470002620FB681968124813465B001344DB00E2
:10348000034404331960B7F926200D4913465B0045
:103490001344DB000B44123300221A80B7F92620B4
:1034A000074913465B001344DB000B4408337A687A
:1034B0001A60B7F9263018462837BD4680BD00BFD0
:1034C000E84E0020F0B4010030B5010048B501001D
:1034D0005CB5010080B588B002AFF860B9607A6071
:1034E000FB70FB6893F82C30062B02D046480CF09A
:1034F000CDFDBB68002B12D0BB681B68002B0ED023
:10350000BB681B68F968184614F0ADF80346002B39
:1035100005D1BB681B6803F0F003E02B02D16FF00C
:103520000F036CE0FB78FA681946B868FFF772FE83
:103530000346FB82B7F91630002B02DAFB8A5BB236
:103540005DE0B7F91620314913465B001344DB00F8
:103550000B44143302221A70B7F916202B49134674
:103560005B001344DB000B440833FA681A60B7F9B8
:10357000162013465B001344DB000833234A134430
:10358000043306227968184616F0A4FEB7F916200F
:103590001E4913465B001344DB000B441233002228
:1035A0001A80B7F91620194913465B001344DB0053
:1035B0000B441B68002B21D0B7F916201349134682
:1035C0005B001344DB000B441B683B61B7F916201A
:1035D0000E4913465B001344DB000B4400221A60C3
:1035E000FB6803F126024FF4006300937B6839699E
:1035F000F868FEF7C9F8386903F07AFF0023184627
:103600001837BD4680BD00BF88B50100E84E0020D8
:10361000B0B58AB004AF786039600CF015FE3B6835
:10362000002B06D1494812F000FE494812F0FDFD7A
:1036300088E07B685B683B613B691B889BB2B3F5A4
:10364000807F0CD13B691B79062B08D13B695B79E4
:10365000042B04D13B695B889BB2082B03D07868AC
:1036600003F046FF6EE03B6903F10E0107F10C0326
:103670000422184616F02EFE3B6903F1180107F1EB
:1036800008030422184616F025FE3B6804331B6825
:10369000002B04D10023FB750023BB7513E0BA682F
:1036A0003B6804331B689A420CBF01230023DBB242
:1036B000FB75FA683B6804331B689A420CBF012310
:1036C0000023DBB2BB753B6903F10802FB7D002BD5
:1036D00001D0012300E0022307F10C013868FFF755
:1036E000F9FE3B69DB889BB2B3F5807F03D0B3F56D
:1036F000007F21D023E0FB7D002B1FD0BB7D002B62
:103700001CD13B6803F126003B6903F108043B68C8
:1037100003F126053B6804333A690832022103911C
:1037200007F10C010291019200932B4622460146BB
:10373000386800F0DBFA01E000BF00E000BF786805
:1037400003F0D6FE1837BD46B0BD00BFCCB20100B5
:1037500080AA010080B586B002AFF860B960134658
:10376000FB71FA79424913465B001344DB000B44BA
:1037700014331B78012B02D83E480CF087FCFA79F1
:103780003B4913465B001344DB000B4414331B78A6
:10379000022B53D1FA79364913465B001344DB0000
:1037A0000B4412331B88B3F58E7F19D9FA7913466F
:1037B0005B001344DB002E4A134404331946F868B7
:1037C00000F036FB0346002B38D1FA79284913461E
:1037D0005B001344DB000B44143303221A702DE00A
:1037E000FA79234913465B001344DB000B44123380
:1037F0001B88B3F5877F21D3FA7913465B00134406
:10380000DB001B4A1344191DFA7913465B0013446D
:10381000DB000833164A134404331A46F86800F0F4
:10382000E5FA0346002B09D1FA79114913465B00EA
:103830001344DB000B44143303221A70FB6803F1BA
:103840002601FA7913465B001344DB000833084A6B
:10385000134404334FF4006200920A46B968F868D2
:10386000FDF792FF034618461037BD4680BD00BFE6
:10387000E84E0020CCB5010080B58AB002AFF860F8
:10388000B9607A607B68BB610CF0DEFCFB68002BE2
:1038900002D16D480CF0FAFBBB68002B02D16B48DB
:1038A0000CF0F4FB7B68002B02D169480CF0EEFBB6
:1038B0007B681B68F968184613F0D5FE0346002B99
:1038C00002D0644BFB61AFE07B681B6803F0F00340
:1038D000E02B18D101233B7400237B745E23BB745F
:1038E0007B6801331B7803F07F03DBB2FB747B68DA
:1038F00002331B783B757B6803331B787B7507F1BC
:103900001003FB6190E07B681A68FB6804331B6856
:103910005A40FB6808331B681340002B12D07B68A9
:103920001B689BB24FF6A96293420BD0FB680C3325
:103930001B68002B03D0FB680C33BB6102E06FF007
:1039400003037DE0444B1B781946444A0B465B0059
:103950000B44DB00134414331B78012B25D93E4B59
:103960001B7819463D4A0B465B000B44DB001344B1
:1039700008331B68FA689A4217D1BB691A68364B3C
:103980001B781846354903465B000344DB000B44B3
:1039900004331B689A4208D12F4B1B781A46B9682A
:1039A000F868FFF7D7FE03464AE00023FB7531E0D5
:1039B000FA7D2A4913465B001344DB000B441433A1
:1039C0001B78012B23D9FA7D244913465B0013444D
:1039D000DB000B4408331B68FA689A4217D1BB69B5
:1039E0001968FA7D1D4813465B001344DB0003444D
:1039F00004331B6899420AD1174AFB7D1370FB7D83
:103A00001A46B968F868FFF7A5FE034618E0FB7D83
:103A10000133FB75FB7D092BCAD9BA68B969F8680F
:103A200000F01EF803460BE0FB6803F126024FF49A
:103A300000630093FB69B968F868FDF7A5FE0346CB
:103A400018462037BD4680BDCCB20100FCB5010050
:103A5000ACB5010004B2010022E70020E84E0020CE
:103A600080B58CB002AFF860B9607A60FB6826332D
:103A70007B61FF2387F8233000237B62BB681B68D0
:103A8000F968184613F0EFFD0346002B0CD1BB6814
:103A90001B6803F0F003E02B06D0BB68002B03D0BB
:103AA000BB681B68002B02D16FF00F030DE1FA68B1
:103AB0000121B868FFF7AEFB03467B82B7F91230ED
:103AC000002B02DA7B8A5BB2FFE07B8A7E2B02D975
:103AD00080480CF0DBFA7B8A7B747A7C7E49134643
:103AE0005B001344DB000B4414331B78002B15D10F
:103AF00001237B627A7C784913465B001344DB0028
:103B00000B44143301221A707A7C734913465B000C
:103B10001344DB000B440833FA681A607A7C6E4960
:103B200013465B001344DB000B4414331B78012B5A
:103B30000DD07A7C684913465B001344DB000B44CC
:103B400014331B78012B02D864480CF09FFA7B6A6F
:103B5000002B02D17B68002B28D1B968F86800F0EF
:103B600067F9034687F8233097F92330002B17D1E4
:103B70007A7C594913465B001344DB000B44143331
:103B80001B78012B0CD17B6A002B09D17A7C52491E
:103B900013465B001344DB000B44123300221A80EF
:103BA0007B68002B02D197F923308EE07B68002BD5
:103BB00002D14B480CF06AFA7A7C474913465B0005
:103BC0001344DB000B4414331B78012B17D9454AEF
:103BD0007B7C13707A7C13465B001344DB00083354
:103BE0003D4A134404334FF4006200927A697968C5
:103BF000F868FDF7C9FD034687F8233063E07A7C57
:103C0000354913465B001344DB000B4414331B7827
:103C1000012B58D10023BB617B68FB6118E0FB6975
:103C20005A89FB691B899A4206D1FB691B68002BE4
:103C300002D02D480CF02AFAFB691B7B03F04003ED
:103C4000002B02D00123BB6105E0FB691B68FB610F
:103C5000FB69002BE3D1BB69002B07D07A684FF4D6
:103C600020710E2003F0F4FFF86104E07B68FB6133
:103C7000F86903F0B7FCFB69002B21D07A7C164968
:103C800013465B001344DB000B441B68002B0AD077
:103C90007A7C114913465B001344DB000B441B681C
:103CA000184603F025FC7A7C0B4913465B0013444D
:103CB000DB000B44FA691A60002387F8233002E026
:103CC000FF2387F8233097F9233018462837BD465D
:103CD00080BD00BF08B60100E84E002018B6010004
:103CE000FCB5010022E7002040B6010080B58AB093
:103CF00002AFF860B9607A603B600023FB77FB6835
:103D0000002B02D136480CF0C1F94FF420721C216F
:103D10000E2003F0B5F9B861BB69002B02D14FF05A
:103D2000FF3359E0BB695B891B2B02D82D480CF08F
:103D3000ADF9BB695B687B61BB8E184613F0DCFC98
:103D400003461A467B69DA80FB6893F82C30062B11
:103D500002D025480CF09AF97B69083306223968AD
:103D6000184616F0B7FA7B6912330622F96A18462C
:103D700016F0B0FA7B690E330422B96A184616F0C1
:103D8000A9FA7B6918330422396B184616F0A2FA97
:103D90007B6900221A70002242F001025A707B698E
:103DA000002242F008029A700022DA707B69062233
:103DB0001A717B6904225A7140F6060300937B68EE
:103DC000BA68B969F868FDF7DFFCB86903F090FBE1
:103DD0000023BB6197F91F3018462037BD4680BDD0
:103DE000CCB201005CB6010090B6010080B588B08D
:103DF00004AFF860B9607A60FB6803F12601FB68E4
:103E000003F12600FB68043301220392BA68029290
:103E1000064A0192009303467A68F868FFF766FF46
:103E2000034618461037BD4680BD00BF0CB20100E6
:103E300080B582B000AF78603960054A396878682B
:103E4000FFF7D4FF034618460837BD4680BD00BFC4
:103E500004B2010080B58EB004AF786039608B4B3E
:103E60009B687B627B6A1B7803F00F03DBB29B00CD
:103E7000DBB27B847B8C132B40F2F0807B685B8908
:103E8000032B40F2ED807B685B681B7887F821305C
:103E90007B685B685B7887F8203097F82130002BCF
:103EA00000F0D580082B40F0D580794BFB61774B33
:103EB0005B6903F0F003E02B00F0D980734B5B6982
:103EC000724A12681146184613F0CDFB0346002BC8
:103ED00040F0CF807B681B89072B40F2C380786855
:103EE00013F085FE0346002B03D0786803F000FB37
:103EF000C8E07B8C0E331946786813F0FCFF03464C
:103F0000002B48D07B681A897B8C13447B837B68A9
:103F10001B897A8B9A42C0F0AE807B8B4FF4207263
:103F200019460E2003F0ACF878617B69002B00F095
:103F3000A4807B695B891A467B8C08339A4203D242
:103F4000786903F0D5FA99E07B695B687A8C796AC5
:103F5000184616F0BFF97B8C1946786903F07EFA93
:103F60000346002B06D04B480CF090F8786903F01C
:103F7000BFFA83E07968786903F09EFB0346002B63
:103F800003D0786903F0B4FA78E0786803F0B0FA07
:103F90007B697B600CE07B8C0E331946786803F0FC
:103FA0005DFA0346002B03D03B480CF06FF865E048
:103FB0007B685B683B617B8C1946786813F09BFFDC
:103FC0000346002B45D17B685B68FB60FB691A6880
:103FD000FB68DA602D4B1A69FB681A613B690022A5
:103FE0001A703B695B889BB24FF6F772934207D910
:103FF0003B695B889BB209339AB23B695A8006E001
:104000003B695B889BB208339AB23B695A80FB6874
:10401000FF221A72FB6800229A720022DA727B8CED
:104020001946F86813F0D1FD03461A46FB685A8119
:104030003B6802930123019300230093FF23002296
:10404000F969786813F0E5FA0346FB7201E000BFF6
:1040500000E000BF786803F04BFA13E000BF02E015
:1040600000BF00E000BF786803F042FA0AE000BF3A
:1040700004E000BF02E000BF00E000BF786803F08A
:1040800037FA00BF2837BD4680BD00BF74540020FA
:1040900088540020D4B6010008B7010080B58CB068
:1040A00004AF78600B46FB701346BB701C23FB8388
:1040B0007B681B89FA8B9A4202D97B681B89FB8338
:1040C000FB8B08339BB24FF420721946222002F07A
:1040D000D7FFB861BB69002B50D0BB695B891A461A
:1040E000FB8B08339A4202D226480BF0CFFF7B6845
:1040F0005B687B61BB695B683B613B69FA781A70FE
:104100003B69BA785A703B6900221A7100225A71D1
:1041100000229A710022DA71FA8B08237968B86953
:1041200003F0ECFA7B69DB68BB6007F10803184613
:1041300000F02AF8F860FB68002B1BD03B690022D6
:104140009A700022DA70BB695B891946386913F0EE
:104150003CFD03461A463B695A8007F10802FB689A
:1041600002930123019300230093FF230021B869E8
:1041700013F04FFAB86903F0BBF900E000BF203735
:10418000BD4680BD3CB7010080B584B000AF78600B
:104190000CF05AF8324B1B68FB6036E0FB6893F872
:1041A0002D3003F00103DBB2002B2BD0FB6893F81A
:1041B0002D309B0803F00103DBB2002B22D0FB68FB
:1041C00004331B68002B1DD07B681A68FB6804331E
:1041D0001B685A40FB6808331B681340002B01D151
:1041E000FB6838E0FB6893F82D3003F00203002BE6
:1041F00008D17B681A68FB680C331B689A4201D1AE
:10420000FB6828E0FB681B68FB60FB68002BC5D1DE
:10421000144B1B68002B1AD0124B1B6893F82D30DF
:1042200003F00103002B12D00E4B1B6893F82D30C6
:1042300003F00403002B0AD00A4B1B6804331B68ED
:10424000002B04D07B681B68DBB27F2B01D10023DD
:1042500001E0044B1B6818461037BD4680BD00BF07
:1042600048DB00204CDB002080B582B000AF7860D6
:104270007B6893F82D3003F00103DBB2002B16D0DE
:104280007B6804331B68002B11D00B4B5A697B6889
:1042900004331B689A4208D0074B5B69796818465B
:1042A00013F0E1F90346002B01D0012300E00023C5
:1042B00018460837BD4680BD7454002080B588B0CC
:1042C00000AF7860396001233B610BF0BDFF7B6874
:1042D0005B68FB60FB681B781B09DBB2042B04D016
:1042E000786803F005F900233DE1FB681B7803F0D3
:1042F0000F03DBB29B00DBB27B81FB685B889BB268
:10430000184613F0F9F90346FB827B681B89FA8A89
:104310009A4204D2FB8A1946786802F0BFFF7B6894
:104320005B897A899A4207D87B681B89FA8A9A4204
:1043300002D87B89132B04D8786803F0D9F80023BE
:1043400011E17B891946F86813F03FFC0346002B06
:1043500004D0786803F0CCF8002304E1FB681B6903
:10436000834A5361FB68DB68814A1361804B5B6958
:1043700003F0F003E02B12D13B6893F82D3003F0EB
:104380000103DBB2002B07D03B6804331B68002B12
:1043900002D03B68FB612AE00023FB6127E038681C
:1043A000FFF762FF0346002B02D03B68FB611EE073
:1043B0000023FB616E4B5B69DBB27F2B17D06D4B2B
:1043C0001B68FB610EE0FA693B689A4206D0F86907
:1043D000FFF74AFF0346002B08D100E000BFFB694E
:1043E0001B68FB61FB69002BEDD100E000BFFB699E
:1043F000002B11D1FB685B7A112B0DD17B89FA68F8
:104400001344BB61BB695B889BB2B3F5884F03D192
:104410003B68FB6100233B613B69002B17D0544B89
:104420001B69002B13D0524B1B693968184613F0D7
:104430001AF90346002B05D14D4B1B6903F0F0031D
:10444000E02B04D1786803F053F800238BE0FB697C
:10445000002B04D1786803F04BF8002383E0FB685D
:10446000DB889BB21A464FF63F731340002B0BD0EC
:10447000786800F013FE78607B68002B01D1002380
:1044800071E07B685B68FB60394AFB691360384AFE
:104490003B685360364AFB689360FB681B7803F007
:1044A0000F03DBB29B00DBB29AB2314B9A813968C1
:1044B000786803F031FC03467B727B7A012B3ED097
:1044C0007B891946786802F0C9FFFB685B7A112B7B
:1044D00006D0112B13DC012B0CD0062B05D00EE0DF
:1044E0003968786809F038F92AE03968786805F0A1
:1044F000A1F925E039687868FFF7ACFC20E07B7A09
:10450000022B18D01A4B5B69F969184613F0ABF807
:104510000346002B0FD1164B5B6903F0F003E02B31
:1045200009D0B7F90A301946786813F014FD022152
:10453000786813F04EF8786802F0DAFF00E000BF08
:104540000B4B00221A600A4B00225A60084B0022D3
:104550009A60074B00229A81054B00221A61044B96
:1045600000225A61002318462037BD4680BD00BF97
:104570007454002048DB002080B588B000AFF8609C
:10458000B9607A60FB700023FB610BF05DFEFB6895
:104590009B7B012B02D079480BF078FD7B68002BC8
:1045A00000F0C0801423FB821421F86813F0A3FCF0
:1045B0000346002B02D06FF00103DBE0FB685B6871
:1045C000BB61FB685B89132B02D86D480BF05EFD65
:1045D000BB69FA781A72BB6997F82C205A7297F85F
:1045E0002C20FB781B0213431B021AB297F82C10E5
:1045F000FB781B020B431B121BB2DBB21BB2134333
:104600001BB29BB21A46FB691344FB617B681A68B4
:10461000BB691A61BB691B699BB2FA691344FB61F0
:10462000BB691B691B0CFA691344FB61FB8A9B087D
:104630009BB2DBB243F04003DAB2BB691A70BB69CC
:1046400097F828205A7097F82820BB691B781B021E
:1046500013431B021AB297F82810BB691B781B0280
:104660000B431B121BB2DBB21BB213431BB29BB238
:104670001A46FB691344FB61FB681B89184613F05B
:104680003BF803461A46BB695A80BB695B889BB2FC
:104690001A46FB691344FB61BB6900229A71002230
:1046A000DA71384B1B88184613F026F803461A4671
:1046B000BB699A80BB699B889BB21A46FB6913440D
:1046C000FB61304B1B8801339AB22E4B1A80BB68BA
:1046D000002B04D12C4B1A68BB69DA6003E0BB687D
:1046E0001A68BB69DA60BB69DB689BB2FA6913447C
:1046F000FB61BB69DB681B0CFA691344FB61FB6956
:104700001A0CFB699BB21344FB61FB691B0CFA6931
:104710001344FB61FB69DB43FB61FB699AB2BB6934
:104720005A810FE0FB685B89132B02D86FF00103FD
:1047300020E0FB685B68BB61BB691B693B6107F1FB
:1047400010037B603B6B9B8C002B0CD0FB681A89A1
:104750003B6B9B8C9A4206D97A68396BF86800F0FB
:1047600067FE034606E03B6B5B697A68F968386B65
:104770009847034618462037BD4680BD68B70100FC
:1047800074B7010010E70020A4B7010080B58AB01B
:1047900000AF7860396007F10C03FB617B681B7820
:1047A00087F8223097F8223080338A4AD35C03F0AE
:1047B0002003002B01D1002307E100237B620A23A1
:1047C00087F8233097F82230302B1CD17B680133D7
:1047D0007B607B681B7887F8223097F82230782B33
:1047E00003D097F82230582B0AD1102387F82330B2
:1047F0007B6801337B607B681B7887F8223002E09E
:10480000082387F8233097F822308033714AD35C2D
:1048100003F02003002B1AD097F82330082B04D183
:1048200097F82230303B072B3BD897F823307A6A31
:1048300003FB02F297F822301344303B7B627B6823
:1048400001337B607B681B7887F82230DBE797F8C1
:104850002330102B26D197F8223080335D4AD35C69
:1048600003F0A003002B1DD07B6A1B0197F82220C8
:1048700002F10A0197F8222080325648825C02F049
:104880000802002A01D0612200E041228A1A134363
:104890007B627B6801337B607B681B7887F8223002
:1048A000B1E700BF97F822302E2B14D107F10C038B
:1048B0000C33FA699A4201D3002386E0FB691A1D82
:1048C000FA617A6A1A607B6801337B607B681B78C7
:1048D00087F8223066E700BF97F82230002B0AD015
:1048E00097F8223080333B4AD35C03F00103002B5E
:1048F00001D1002369E007F10C03FA69D31A9B1078
:104900000133042B52D801A252F823F021490000B0
:10491000B5490000254900004749000075490000DD
:10492000002352E07B6AB3F1807F01D300234CE087
:10493000FB68FF2B01D9002347E0FB681B067A6A5E
:1049400013437B6237E07B6AB3F5803F01D30023DA
:104950003BE0FB68FF2B02D83B69FF2B01D900230A
:1049600033E0FB681A063B691B0413437A6A13435E
:104970007B6220E07B6AFF2B01D9002325E0FB68E6
:10498000FF2B05D83B69FF2B02D87B69FF2B01D990
:1049900000231AE0FB681A063B691B041A437B6973
:1049A0001B0213437A6A13437B6204E00A480BF04C
:1049B0006DFB00E000BF3B68002B05D0786A12F069
:1049C000B0FE02463B681A60012318462837BD46F0
:1049D00080BD00BF20F00100ACB7010080B582B0FF
:1049E00000AF786010220449786800F007F80346A9
:1049F00018460837BD4680BDD84F002080B48DB022
:104A000000AFF860B9607A6000233B62FB681B6806
:104A1000BB61BB68FB6207F11803BB62002387F828
:104A2000273058E0002387F82630BB6A1A78324BCB
:104A3000A3FB0213D9080B469B000B445B00D31A5F
:104A4000FB77BB6A1B782C4AA2FB0323DB08DAB294
:104A5000BB6A1A7097F826305A1C87F82620194628
:104A6000FB7F3033DAB201F130033B4403F81C2CF6
:104A7000BB6A1B78002BD8D111E03B6A5A1C3A6202
:104A80007A689A4201DC002330E097F82620FB6A1E
:104A9000591CF96230323A4412F81C2C1A7097F8FB
:104AA00026305A1E87F82620002BE6D13B6A5A1C76
:104AB0003A627A689A4201DC002317E0FB6A5A1CCA
:104AC000FA622E221A70BB6A0133BB6297F8273054
:104AD000013387F8273097F82730032BA2D9FB6AD8
:104AE000013BFB62FB6A00221A70BB681846343730
:104AF000BD465DF8047B7047CDCCCCCC80B584B08E
:104B000000AF0023BB60124B1B68FB6018E0FB6822
:104B1000DB7F002B0BD0FB68DB7F013BDAB2FB684D
:104B2000DA77FB68BB60FB681B68FB6008E0FB682A
:104B30007B60FB681B68FB60B968786800F00AF866
:104B4000FB68002BE3D100BF00BF1037BD4680BD1E
:104B5000E84F002080B588B000AF7860396000234E
:104B6000FB833A687B689A4202D13D480BF08EFA8B
:104B70003B68002B07D03B681B687A689A4202D0DA
:104B800038480BF083FA7B685B685B687B617B6904
:104B90009B889BB2002B27D17B685B68BB617B69DC
:104BA0001A687B685A60BB6958687B6808331422AE
:104BB000194615F08FFB0121B86912F01AFDB8698A
:104BC00013F0DBF903467B82FA8B7B8A1344B3F53F
:104BD000803F02DB24480BF059FAFA8B7B8A13449E
:104BE000FB83B86902F084FC7B685B68BB611CE0F6
:104BF000BB695B687B61BB69FB607B691B68BB61F0
:104C0000F86813F0BAF903467B82FA8B7B8A134467
:104C1000B3F5803F02DB14480BF038FAFA8B7B8A3D
:104C20001344FB83F86802F063FCBB69002BDFD1FF
:104C30003968786800F0BAF80C4B1B88FA8B9A42F6
:104C400002D90B480BF022FA084B1A88FB8BD31AB7
:104C50009AB2064B1A80FB8B18462037BD4680BDA2
:104C6000B8B70100C4B70100D8B7010012E70020AF
:104C7000F8B7010080B58AB000AF786039600023D2
:104C80007B6100233B620023FB610023BB610023A7
:104C90003B61284B1B687B6230E07B6A5A697B680A
:104CA000DB689A420CD17B6A9A697B681B699A42DD
:104CB00006D17B6A9A897B689B889BB29A4214D002
:104CC0003B6901333B613B6A002B04D17B6A3B6249
:104CD000FB69BB6109E07B6ADA7F3B6ADB7F9A4252
:104CE00003D87B6A3B62FB69BB617B6A1B68002B54
:104CF00001D07B6AFB617B6A1B687B627B6A002B4D
:104D0000CBD13B6A002B08D0B969386AFFF722FF84
:104D1000F8607A69FB6813447B617A693B689A4260
:104D200002DA3B69012BACDC7B6918462837BD46AB
:104D300080BD00BFE84F002080B584B000AF786030
:104D40003960052001F042FFF860FB68002B10D1AC
:104D500039687868FFF78EFF02463B68934203DCB0
:104D6000052001F033FFF860FB68002B01D1002320
:104D700016E020220021F86815F0AEFAFB680F2239
:104D8000DA77094B1A68FB681A60074AFB681360F8
:104D9000FB68083314227968184615F09BFAFB6803
:104DA00018461037BD4680BDE84F002080B582B060
:104DB00000AF786039600E4B1B687A689A4204D164
:104DC0007B681B680A4A136009E03B68002B02D12C
:104DD00008480BF05BF97B681A683B681A607968D1
:104DE000052001F03BFF00BF0837BD4680BD00BF76
:104DF000E84F00201CB8010080B58CB000AFF8600F
:104E0000B9607A600023BB6201233B62BB685B68C8
:104E1000FB61FB695B889BB2184612F06DFC034690
:104E20007B83FB691B7803F00F03DBB29B007B766F
:104E30007B7E9BB27A8B9A4202D24FF0FF3321E104
:104E40007B7E9BB27A8BD31A7B83FB69DB889BB218
:104E5000184612F051FC0346C3F30C039BB2DB006F
:104E6000FB82BB685B68FB62FB6A00221A7000224F
:104E70005A7000229A700022DA70FB6AFA8A9A80CD
:104E8000FA8A7B8B13449AB2FB6ADA80FB6ADB886E
:104E90009BB2FA8A9A4202D94FF0FF33F2E0FB68E4
:104EA0005B687B6268E07B6A5B683B61FB6A9B884E
:104EB0009AB23B699B889BB29A4235D2FB6A7A6A66
:104EC0001A60BB6A002B20D0FB6A9B889AB2BB6A2F
:104ED000DB889BB29A4207D3FB6ADB889AB23B69B4
:104EE0009B889BB29A4202D94FF0FF33CAE0BB6A5B
:104EF000BA681A60BB6ADB889AB2FB6A9B889BB26D
:104F00009A423DD000233B623AE0FB6ADB889AB2CA
:104F10003B699B889BB29A4202D94FF0FF33B1E0C4
:104F2000FB68BA685A602BE0FB6A9B889AB23B69BF
:104F30009B889BB29A4202D14FF0FF33A2E0FB6AFA
:104F40009B889AB23B69DB889BB29A4202D24FF0AF
:104F5000FF3397E0BB6A002B09D0BB6ADB889AB2AB
:104F60003B699B889BB29A4201D000233B623B691C
:104F70001B687B623B69BB627B6A002B93D100E0BC
:104F800000BF7B6A002B25D1BB6A002B18D0BB6AFF
:104F9000DB889AB2FB6A9B889BB29A4202D93B4853
:104FA0000BF074F8BB6ABA681A60BB6ADB889AB205
:104FB000FB6A9B889BB29A420CD000233B6209E0BB
:104FC000FB685B68002B02D031480BF05FF8FB6890
:104FD000BA685A607B68002B05D1FB689B7F03F0A1
:104FE0000103002B4DD03B6A002B43D0FB685B686C
:104FF000002B06D0FB685B685B689B889BB2002B2C
:1050000002D000233B6235E0FB6ABB62FB6A1B688F
:105010007B6212E07B6A5B68FB62BB6ADB889AB2E8
:10502000FB6A9B889BB29A4202D000233B6207E056
:10503000FB6ABB62FB6A1B687B627B6A002BE9D15F
:105040003B6A002B16D0FB685B68002B02D111482D
:105050000BF01CF8FB685B685B68FA6A9A4202D145
:105060000C480BF013F8FB6A1B68002B02D00A48AF
:105070000BF00CF83B6A002B14BF01230023DBB2BA
:1050800000E0002318463037BD4680BD38B8010027
:1050900058B8010090B80100A0B8010080B58EB0EA
:1050A00000AF78607B685B68BB62BB6A1B7803F00B
:1050B0000F03DBB29B00DBB2142B40F06D81BB6AA7
:1050C000DB889BB2184612F017FB0346C3F30C03B0
:1050D0009BB2DB00FB84BB6A5B889BB2184612F074
:1050E0000BFB0346BB84BB6A1B7803F00F03DBB2E8
:1050F0009B0087F8233097F823309BB2BA8C9A42F2
:10510000C0F04C8197F823309BB2BA8CD31ABB8481
:10511000786812F032FF03463B849A4B1B881A468C
:105120003B8C13440A2B10DD3B8C1946B86AFFF701
:10513000A1FD0346002B00F03381924B1B881A46D9
:105140003B8C13440A2B00F32B818F4B1B683B6372
:1051500015E03B6B5A69BB6ADB689A420CD13B6B2A
:105160009A69BB6A1B699A4206D13B6B9A89BB6AF2
:105170009B889BB29A4206D03B6B1B683B633B6BA0
:10518000002BE6D100E000BF3B6B002B09D13B8C2C
:105190001946B86AFFF7D0FD38633B6B002B1CD172
:1051A00001E1BB6ADB889BB2184612F0A5FA034600
:1051B000C3F30C03002B10D13B6BDB89184612F0B4
:1051C0009BFA0346C3F30C03002B06D03B6B08335A
:1051D0001422B96A184615F07DF8BB6ADB889BB2C9
:1051E00003F02003002B0CBF01230023DBB2FB6183
:1051F000FB69002B0ED0FA8CBB8C13447B837A8B1B
:10520000FB8C9A42C0F0A4807B8B4FF6EB729342EA
:1052100000F29E80FA697968386BFFF7EDFD7861DE
:105220007B69B3F1FF3F00F09580564B1A883B8CA9
:1052300013449AB2534B1A80FB69002B0DD0FA8CA1
:10524000BB8C13447B823B6B7A8A9A833B6B9B7F3C
:1052500043F00103DAB23B6B9A777B69012B75D17E
:105260003B6B9B8B14333B823B6B5B685B681B68BF
:10527000FB623B6B5B685B68BB623B6B0833142271
:105280001946B86A15F026F83B8A184612F034FA27
:1052900003461A46BB6A5A80BB6A00229A710022F2
:1052A000DA71BB6A00229A720022DA721421B86A9B
:1052B00012F08BFC03461A46BB6A5A813B6B5B6853
:1052C0007B600DE0FB6A5B68FB601421F86A02F00A
:1052D000C5F8F96A786802F0A5F9FB681B68FB62FB
:1052E000FB6A002BEED1284B1B683A6B9A4202D125
:1052F00000237B6310E0244B1B687B6307E07B6B20
:105300001B683A6B9A4206D07B6B1B687B637B6B96
:10531000002BF4D100E000BF796B386BFFF746FD3E
:10532000786812F02AFE03463B84164B1B883A8CA1
:105330009A4202D915480AF0A9FE124B1A883B8CF2
:10534000D31A9AB20F4B1A807B6830E000232EE00C
:1053500000BF00E000BF3B6B002B02D10C480AF0FD
:1053600095FE3B6B5B68002B1CD1074B1B683A6BAF
:105370009A4202D007480AF089FE0021386BFFF7F5
:1053800015FD10E012E70020E84F0020C4B801002E
:10539000E0B80100ECB8010000BF04E000BF02E08B
:1053A00000BF00E000BF786802F0A2F800231846B2
:1053B0003837BD4680BD00BF80B582B000AF786091
:1053C0007B68002B02D105480AF060FE7968062050
:1053D00001F044FC00BF0837BD4680BDA4B4010005
:1053E00080B584B000AF78607B68FB60FB68002B01
:1053F00002D10D480AF04AFEFA687B689A4202D050
:105400000A480AF043FEFB685B69002B04D0FB6886
:105410005B69184602F06CF8F868FFF7CDFF00BF33
:105420001037BD4680BD00BF0CB9010018B901009E
:1054300080B594B002AFF860B9607A600023A7F835
:105440004630BB689B8C143B002B00DA0733DB1023
:105450007B871423FB87FB685B687B637B6B3B6309
:105460003B6B1B7803F00F03DBB29B00DBB2142B0A
:1054700002D06FF005030FE1FB685B89132B08D89E
:10548000874810F0D2FE874810F0CFFE6FF005037A
:1054900002E13B6BDB889BB2184612F02DF9034604
:1054A000BB87BB8FC3F30C03A7F84030BB8F03F45B
:1054B0000053FB62FB681B89143BA7F84230E1E014
:1054C0007B8FDB009BB2B7F84220934228BF134684
:1054D0007B854FF4207214210E2001F0D1FD7862FB
:1054E0007B6A002B00F0D5807B6A5B89132B02D886
:1054F0006D480AF0CBFD7B6A5B681422796B184615
:1055000014F0E8FE7B6A5B683B637B8DA7F8443050
:1055100060E0FB685A89FB8FD31AFB83FB685B89C9
:10552000FA8F9A4202D961480AF0B0FDFA8BB7F8B7
:105530004430934228BF1346A7F84630B7F84630A8
:10554000002B05D10023FB87FB681B68FB6041E053
:1055500012F0CAF8B861BB69002B03D1786A01F078
:10556000C7FF97E0B869FB685A68FB8F1344B7F828
:105570004610B7F8462001920093034641220020CE
:1055800012F085FC78617B69002B06D1B869FFF7C2
:1055900013FF786A01F0ACFF7CE0F86802F022F8B3
:1055A000BB69FA685A61BB69414A1A617969786ACC
:1055B00002F038F8B7F84420B7F84630D31AA7F805
:1055C0004430B7F84430002B04D00023FB87FB683D
:1055D0001B68FB60B7F84430002B9AD1FA8FB7F8FC
:1055E00046301344FB87BB689B8CA3F11302B7F8CA
:1055F00042309A42CCBF01230023DBB23B62B7F8B2
:105600004030C3F30C03BB873B6A002B02D0FB6A1C
:10561000002B03D0BB8F43F40053BB87BB8F1846CE
:1056200012F06AF803461A463B6BDA807B8D14331E
:105630009BB2184612F060F803461A463B6B5A803C
:105640003B6B00229A720022DA721421386B12F03E
:10565000BCFA03461A463B6B5A81BB685B697A68A1
:10566000796AB8689847786A01F042FFB7F8422033
:105670007B8DD31AA7F84230B7F840207B8F1344B4
:10568000A7F84030B7F84230002B7FF419AF002361
:1056900002E000BF4FF0FF3318464837BD4680BDDB
:1056A00024B9010080AA010040B9010060B90100DD
:1056B000E153000080B483B000AF03463960FB7152
:1056C000FB79012B0FD83B68002B06D0FB790949E9
:1056D0003A68126841F8232005E0FB790549064A3B
:1056E000126841F8232000BF0C37BD465DF8047BEB
:1056F000704700BF6C540020A4B7010080B586B08D
:1057000000AFF860B9607A60BB68FF2B28BFFF2349
:105710003B610023FB753AE0FA7D214913461B01EA
:1057200013441B010B440A331B78032B2CD1FA7D45
:1057300013461B0113441B011033194A13443A69E1
:105740001946F86812F006F80346002B1CD1FA7DC2
:10575000134913461B0113441B01CA183B69134428
:1057600010331B78002B0FD17B68002B0AD0FA7DF9
:105770000B4913461B0113441B010B4404331A68E5
:105780007B681A60002307E0FB7D0133FB75FB7D1E
:10579000032BC1D96FF00F0318461837BD4680BDE3
:1057A000FC4F002080B590B000AF0346FB71FA7942
:1057B00013461B0113441B016A4A13443B633B6BB2
:1057C000DB7A012B02D968480AF060FC3B6BDB7A7C
:1057D0001A46664B53F82230002B09D1FB79002181
:1057E000184600F055F93B6B00229A720023B4E092
:1057F0003B6B1033184614F014FE03469BB2123371
:105800009BB24FF420721946362001F039FCF86241
:10581000FB6A002B00F0958007F110030C22002199
:10582000184614F059FD3B6B1B89184611F064FFB4
:1058300003463B820123BB744FF48073BB8207F1A4
:1058400010030C221946F86A02F01AF93B6B103368
:10585000BB63BB6B013BBB630C23BB87BB6B0133DF
:10586000BB63BB6BBB62002387F8373007E097F858
:105870003730013387F83730BB6B0133BB63BB6B09
:105880001B782E2B03D0BB6B1B78002BEFD1BA6B90
:10589000BB6AD31AFB84BA8F97F8373013444FF69C
:1058A000FE72934253DC97F83720BB8F1946F86A93
:1058B00012F0FFFBBB8F01339BB2FA8CB96AF86A16
:1058C00002F064F997F837309AB2BB8F13449BB259
:1058D0000133BB87BB6B1B78002BBFD1BB8F002272
:1058E0001946F86A12F0E5FBBB8F0133BB874FF412
:1058F0008073BB814FF48073FB81BB8F07F10C0178
:105900000422F86A02F042F93B6BDB7B87F8253012
:1059100035237B843B6BDB7A9B00144A1344FB6189
:1059200097F82530124A52F823007B8CFA69F96AFD
:1059300008F032F8034687F83F30F86A01F0D8FDE6
:1059400002E0FF2387F83F3097F93F3005E000BFC2
:10595000F86A01F0CDFD6FF0050318464037BD46EB
:1059600080BD00BFFC4F002070B901006C540020C6
:10597000EC4F002080B584B000AF2E2012F0B1FCB7
:10598000B860BB68002B01D1002326E00AF08EFB33
:105990000346FB80FB88B3F5806F08D3FB881A466B
:1059A0001049B86808F0B2F90346FB7301E0F82328
:1059B000FB7397F90F3013F1080FE7D097F90F3009
:1059C000002B04D0B86808F0B5FA002305E00022E7
:1059D0000549B86808F08EFABB6818461037BD460E
:1059E00080BD00BFA4B70100515E000090B583B038
:1059F00000AF0023FB7108E0FB79234A52F8233003
:105A0000002B06D0FB790133FB71FB79032BF3D913
:105A100000E000BFFB79032B11D8FC79FFF7AAFF48
:105A20000346194A42F82430FB79174A52F82330CA
:105A3000002B04D0154AFB791370FB7920E000237A
:105A4000FB71124B1B780133BB7115E0BB79032B43
:105A500001D90023BB71BB790B4A52F82330002BCC
:105A600004D00A4ABB791370BB7909E0FB79013392
:105A7000FB71BB790133BB71FB79032BE6D904239E
:105A800018460C37BD4690BDEC4F002023E70020A0
:105A900090B585B000AF03463960FB710023FB73FE
:105AA0003DE0FA7B574913465B0013449B000B44CF
:105AB0001B68002B30D0FA7B524913465B0013441D
:105AC0009B000B4408331B78FA799A4224D1FA7B65
:105AD0004C4913465B0013449B000B441C68FA7945
