:1000000000000320D501000051020000636C0100D4
:1000100055020000570200005902000000000000D5
:1000200000000000000000000000000011040000BB
:100030005D020000000000004104000061020100B8
:10004000476901004F690100576901005F690100BC
:10005000676901006F690100776901007F6901002C
:10006000876901008F690100976901009F6901009C
:10007000A7690100AF690100B7690100BF6901000C
:10008000C7690100CF690100D7690100DF6901007C
:10009000E7690100EF690100F7690100FF690100EC
:1000A000076A01000F6A0100176A01001F6A010058
:1000B000276A01002F6A0100376A01003F6A0100C8
:1000C000476A01004F6A0100576A01005F6A010038
:1000D000676A01006F6A0100776A01007F6A0100A8
:1000E000876A01008F6A0100976A01009F6A010018
:1000F000A76A0100AF6A0100B76A0100BF6A010088
:10010000C76A0100CF6A0100D76A0100DF6A0100F7
:10011000E76A0100EF6A0100F76A0100FF6A010067
:10012000076B01000F6B0100176B01001F6B0100D3
:10013000276B01002F6B0100376B01003F6B010043
:10014000476B01004F6B0100576B01005F6B0100B3
:10015000676B01006F6B0100776B01007F6B010023
:10016000876B01008F6B0100976B01009F6B010093
:10017000A76B0100AF6B0100B76B0100BF6B010003
:10018000C76B0100CF6B0100D76B0100DF6B010073
:10019000E76B0100EF6B0100A0E901000000002007
:1001A00048000000A0E901000000FF1F000000005F
:1001B000A0E9010000000014000000005000002031
:1001C00088E600000000FF1F00000000000000148F
:1001D0000000000072B614F023FB0E4B07E003F1A1
:1001E0000C049A685968186800F01AF823460A4AFD
:1001F0009342F4D306E01C46596854F8080B00F00B
:100200001EF82346054A9342F5D362B619F01AFD4B
:10021000FEE700BF98010000BC010000D40100000F
:10022000002393420AD210B450F8044B41F8044B17
:1002300004339342F8D35DF8044B704770470023B2
:1002400003E0002240F8042B04338B42F9D37047BB
:10025000FEE7FEE7FEE7FEE7FEE7FEE7FEE7FEE776
:10026000FEE7FEE7FFFFFFFFFFFFFFFFFFFFFFFFD0
:10027000FFFFFFFFFFFFFFFFFFFFFFFFFFFFFFFF8E
:10028000FFFFFFFFFFFFFFFFFFFFFFFFFFFFFFFF7E
:10029000FFFFFFFFFFFFFFFFFFFFFFFFFFFFFFFF6E
:1002A000FFFFFFFFFFFFFFFFFFFFFFFFFFFFFFFF5E
:1002B000FFFFFFFFFFFFFFFFFFFFFFFFFFFFFFFF4E
:1002C000FFFFFFFFFFFFFFFFFFFFFFFFFFFFFFFF3E
:1002D000FFFFFFFFFFFFFFFFFFFFFFFFFFFFFFFF2E
:1002E000FFFFFFFFFFFFFFFFFFFFFFFFFFFFFFFF1E
:1002F000FFFFFFFFFFFFFFFFFFFFFFFFFFFFFFFF0E
:10030000FFFFFFFFFFFFFFFFFFFFFFFFFFFFFFFFFD
:10031000FFFFFFFFFFFFFFFFFFFFFFFFFFFFFFFFED
:10032000FFFFFFFFFFFFFFFFFFFFFFFFFFFFFFFFDD
:10033000FFFFFFFFFFFFFFFFFFFFFFFFFFFFFFFFCD
:10034000FFFFFFFFFFFFFFFFFFFFFFFFFFFFFFFFBD
:10035000FFFFFFFFFFFFFFFFFFFFFFFFFFFFFFFFAD
:10036000FFFFFFFFFFFFFFFFFFFFFFFFFFFFFFFF9D
:10037000FFFFFFFFFFFFFFFFFFFFFFFFFFFFFFFF8D
:10038000FFFFFFFFFFFFFFFFFFFFFFFFFFFFFFFF7D
:10039000FFFFFFFFFFFFFFFFFFFFFFFFFFFFFFFF6D
:1003A000FFFFFFFFFFFFFFFFFFFFFFFFFFFFFFFF5D
:1003B000FFFFFFFFFFFFFFFFFFFFFFFFFFFFFFFF4D
:1003C000FFFFFFFFFFFFFFFFFFFFFFFFFFFFFFFF3D
:1003D000FFFFFFFFFFFFFFFFFFFFFFFFFFFFFFFF2D
:1003E000FFFFFFFFFFFFFFFFFFFFFFFFFFFFFFFF1D
:1003F000FFFFFFFFFFFFFFFFFFFFFFFFFFFFFFFF0D
:10040000FFFFFFFFFFFFFFFFFFFFFFFFFEFFFFFFFD
:10041000074B19680868B0E8F04F80F30988BFF30C
:100420006F8F4FF0000080F311887047AFF30080AA
:1004300084E3002000BF00BFFFFFFFFFFFFFFFFFBF
:10044000EFF30980BFF36F8F154B1A681EF0100F82
:1004500008BF20ED108A20E9F04F10602DE9090057
:100460004FF0200080F31188BFF34F8FBFF36F8FE1
:1004700010F0CAFE4FF0000080F3118809BC196823
:100480000868B0E8F04F1EF0100F08BFB0EC108AFB
:1004900080F30988BFF36F8F704700BFAFF3008010
:1004A00084E3002000BF00BF80B582B000AF786059
:1004B0007968024815F0FDFB00BEFDE7A0A201002F
:1004C00080B584B000AF786039607B68002BFCD0C9
:1004D0003B68002B01D1002313E00C4B1B68002B61
:1004E00001D100230DE03A687968094819F00BFB47
:1004F0000346FB81FB89002B01D13B6801E04FF0F3
:10050000FF3318461037BD4680BD00BFF04D0020B8
:10051000E84D002080B58EB000AFB9607B60034627
:10052000FB731346BB730023FB867B687B61BB6850
:10053000BB6100233B7700237B770123BB7701233B
:10054000FB77002387F82030002387F82130FB7BDE
:1005500087F82230BB7B87F82C3048F64173FB8547
:10056000BB7B012B03D107F114033B6317E0BB7B7B
:10057000022B03D143F22153FB8610E0BB7B032BFC
:1005800003D143F22153FB8609E0BB7B042B03D14B
:1005900043F22153FB8602E043F22153FB86FB8E9C
:1005A00043F22152934230D020220021194819F001
:1005B00052FB184B184A1A60164B1B6807F12402AD
:1005C0001146184619F017FA0346FB86FB8E002BDE
:1005D000FCD1124B1B780F4B1B681149184619F0C0
:1005E0003AFA0346FB86FB8E002BFCD1094B1B68B5
:1005F0000C49184619F057FA0346FB86FB8E002B70
:10060000FCD1044B1B68084A1360FB8E1846383730
:10061000BD4680BDD04D0020D44D0020CAE600204C
:10062000E84D0020EC4D0020F04D002080B5A4B036
:1006300000AF786039600023C7F888300023C7F81E
:100640008C300023BB6007F10C037C22002118468C
:1006500019F001FB0E4B1B68002B12D007F10802AA
:100660000C4B3968786815F026FFC7F88800D7F872
:10067000882007F1080311461846FFF721FFC7F845
:100680008C00D7F88C3018469037BD4680BD00BF2F
:10069000F04D00204D5C010080B487B000AF786061
:1006A0007B681B687B6100233B610023FB734CE08C
:1006B0007B6901337B617B691B78203B102B3ED823
:1006C00001A252F823F000BF210700003F070000FD
:1006D0003F070000350700003F0700003F0700000C
:1006E0003F0700003F0700003F0700003F070000F2
:1006F0003F070000170700003F0700000D0700003C
:100700003F0700003F0700002B0700003B6943F054
:1007100001033B6119E03B6943F002033B6114E0D4
:100720003B6943F004033B610FE03B6943F008037E
:100730003B610AE03B6943F010033B6105E07B69E4
:10074000013B7B610123FB7300BFFB7B83F0010353
:10075000DBB2002BACD17B687A691A603B69184622
:100760001C37BD465DF8047B704700BF80B584B080
:1007700000AF78600B46FB707B68FB6097F9033035
:10078000002B04D1F968074815F093FA06E097F9B1
:1007900003301A46F968044815F08BFA00BF103789
:1007A000BD4680BDD0A20100F0A2010080B584B09A
:1007B00000AFF860B9607A60BA687968034815F0EC
:1007C00078FA00BF1037BD4680BD00BF20A30100EE
:1007D00080B586B000AFF860B96011461A460B4686
:1007E000FB8013467B7100237B611EE07B69BA6846
:1007F00013441B788033154AD35C03F03E03002B6F
:1008000008D07B69BA6813441B781946104815F064
:1008100050FA07E07B69BA6813441B7819460D4803
:1008200015F047FA7B6901337B61FB887A699A424C
:10083000DCDB7B7903F00103002B02D0064815F0C6
:1008400038FA00BF1837BD4680BD00BFE4E701009D
:100850004CA3010050A3010058A3010080B588B04B
:1008600002AF78600023BB600123FB60264B274A60
:10087000274978680EF068F900237B613CE0254A3F
:100880007B6952F823107B699B0018333B4453F873
:10089000103CDAB21F487B6950F8233001200190E8
:1008A00000931D4B78680EF087F80346FB7497F9A8
:1008B0001330002B0ED1174A7B6952F823107B6945
:1008C0009B0018333B4453F8103C1A46134815F06C
:1008D000F0F90EE00F4A7B6952F823107B699B0008
:1008E00018333B4453F8102C97F913300C4815F08B
:1008F000E0F97B6901337B617B69012BBFD900BFC4
:1009000000BF1837BD4680BDB4A20100D10700006A
:10091000AD070000180000206D0700005CA3010077
:100920008CA3010080B586B000AFF860B9601346B3
:10093000FB80BB687B61FB88002B0CBF012300237D
:10094000DAB22E4B1A70FB8840F20112934227D084
:10095000B3F5817F3FDAB3F5807F14D0B3F5807FA4
:1009600039DC002B05D0002B35DB013B042B32D8C2
:1009700023E07B691B681946214815F09AF9F8684D
:10098000FFF76CFF35E07B691B6819461D4815F0C1
:1009900090F900221C494FF47A700CF0DBFB28E040
:1009A0007B691B681946194815F083F9002216491E
:1009B0004FF47A700CF0CEFB1BE07B691B68FA8861
:1009C0001946134815F075F900220F4942F21070CC
:1009D0000CF0C0FB0DE07B691B68FA8819460D48D6
:1009E00015F067F90022084942F210700CF0B2FBD2
:1009F00000BF00BF1837BD4680BD00BFCBE600205A
:100A0000C8A30100E8A30100190A00000CA401001A
:100A100034A4010060A4010080B584B002AF786006
:100A20000B4803F047FE034619460A4815F041F902
:100A3000094B1868094B0193084B0093084B40F28F
:100A40005B7203490EF09EF800BF0837BD4680BDBB
:100A5000204E00208CA40100F44D0020B4A201001F
:100A60002509000080B584B000AF78600B46FB70AC
:100A70007B68FB6097F90330002B04D1F9680748C5
:100A800015F017F906E097F903301A46F96804489B
:100A900015F00FF900BF1037BD4680BDB4A40100AA
:100AA000D4A40100F0B587B004AF7860124B1B6886
:100AB0001946124815F0FDF8114B1C680E4B1D68C5
:100AC000104B1E680F4B1B68184619F021F903469E
:100AD0009AB2094B1B6803930B4B029300230193BB
:100AE0000123009313463246294620460DF09CFE12
:100AF00000BF0C37BD46F0BD2000002000A501005E
:100B0000F44D002024000020650A000080B586B066
:100B100000AF78607B68BB60484815F0CAF8BB68D6
:100B200093F82D3003F00103DBB2002B03D0BB6838
:100B30001B6A7B6101E000237B61142017F01FF822
:100B40007B69002BEBD07B695B790A2BE7D1BB6813
:100B50000433184603F0AEFD03461946384815F035
:100B6000A8F8BB680833184603F0A4FD03461946ED
:100B7000344815F09EF8BB680C33184603F09AFD14
:100B800003461946304815F094F83049304803F0D0
:100B900069FC0346002B02D00023FB7409E02C49BA
:100BA0002C4815F086F8294929480EF05BFA0346CF
:100BB000FB7497F91330002B10D1002126480EF05A
:100BC00001FC0346FB7497F91330002B0CD097F906
:100BD00013301946214815F06CF805E097F91330E9
:100BE00019461F4815F065F80023FB601BE01D4BFC
:100BF0001B78DBB2002B12D000211B480EF0E2FB69
:100C00000346FB7497F91330002B05D097F9133086
:100C10001946164815F04DF8FB680133FB604FF498
:100C20007A7016F0ACFFFB68042BE0DD002010F0BA
:100C3000A1F800BF1837BD4680BD00BF28A5010040
:100C40004CA5010068A5010080A50100204E0020F0
:100C50009CA50100B0A50100190A0000C4A501006F
:100C600004A60100CBE60020A50A000028A601008A
:100C700080B58AB004AF3B1D184615F0BCFF38693B
:100C8000FB68BA68796802910192009303460A4AA8
:100C900028210A4814F080FE78617B69002B02DB72
:100CA0007B69272B04D97969054815F002F8FEE71E
:100CB00000BF1837BD4680BD6CA60100F84D00206E
:100CC00088A6010080B58CB004AF7860334A07F184
:100CD000080307CA83E80700FFF7CAFF002011F0E6
:100CE000A5FC03462E4A53600023FB610023BB6131
:100CF00000237B61002100200EF090FB0FF0CEF866
:100D000017F0EDFA0346274A13600FF0E3F8254B7E
:100D10001B68002B03D1244814F0CBFFFEE707F13A
:100D2000140007F1180207F11C01204B0293204B1D
:100D3000019307F10803009303461E480EF024FABE
:100D400000221D491B480EF057FA00221B49194882
:100D50000EF052FA1A4A002116480EF04DFA1948C0
:100D600014F0A7FF184814F0A4FF184814F0A1FFCE
:100D7000032300934FF480630E4A154915480FF082
:100D80005BF80346002B02D113480EF0EBFF002066
:100D90000FF0F0FF00BF2037BD4680BD70A70100F7
:100DA00000000020F44D0020A0A6010081F3000007
:100DB00009FD0000244E0020256C0000456C000059
:100DC0004D1A0000BCA60100F4A601000CA701000A
:100DD0000D0B000040A701004CA7010080B584B0B6
:100DE00002AF124B7B6018F027FF18F0E8FE18F0F6
:100DF000D5FE7B681B6823F001027B681A60032321
:100E000000934FF48063002209490A480FF014F858
:100E10000346002B02D108480EF0A4FF10F03EF864
:100E2000002318460837BD4680BD00BF00D00040F3
:100E3000C50C00007CA7010084A7010080B586B026
:100E400000AF786039604FF47A737B6100233B61B7
:100E50000023FB607B685B68184615F018FF3B6851
:100E60001A687B681A607B6858687B68196807F1A4
:100E70000C03022215F02CFF38613B69002B01D0D6
:100E80003B6968E07B69013B7B61FB68222B02D0F8
:100E90007B69002BE7D17B69002B01D101235AE04C
:100EA0007B6858687B6819684FF40043002215F08E
:100EB000FBFE38613B69002B4CD13B689B79002BD2
:100EC00017D07B6858687B68196840F2E1130422E8
:100ED00015F0EAFE38613B69002B3BD17B6858680E
:100EE0007B6819684FF49053002215F0DDFE3861DD
:100EF00030E03B681B79012B02D91948FFF7D4FA7F
:100F00007B6858687B68196807F10C03002215F0AC
:100F1000DFFE38613B69002B01D03B691BE0FB68B9
:100F200023F48063FB607B6858687B681968FB6802
:100F3000002215F0B9FE38613B69002B01D03B69F6
:100F400009E03B6819793B685B791A46786800F0DC
:100F5000ABF838613B6918461837BD4680BD00BF05
:100F600014A8010080B584B000AF786039603B6898
:100F7000002B02D10F48FFF797FA3B6800221A7046
:100F80007B6858687B68196807F10803012215F02F
:100F90009FFEF860FB68002B07D1BB6803F02003BD
:100FA000002B02D03B6801221A70FB6818461037EC
:100FB000BD4680BD4CA8010080B584B000AF78600C
:100FC00039603B68002B02D11048FFF76DFA7B684F
:100FD00058687B68196807F10803012215F078FE4C
:100FE000F860FB68002B0BD1BB6803F00403002BF7
:100FF00003D03B6801221A7002E03B6800221A709D
:10100000FB6818461037BD4680BD00BF6CA80100C4
:1010100080B588B000AFF860B9607A60BB68002B1B
:1010200005D17B68002B02D11E48FFF73DFAFB6813
:101030005868FB68196807F114031E2215F048FE72
:10104000F861FB69002B27D1BB68002B10D07B69AE
:1010500003F00703BB61BB69022B02D0BB69062BFF
:1010600003D1BB6801221A7002E0BB6800221A702B
:101070007B68002B10D07B6903F00703BB61BB6961
:10108000052B02D0BB69062B03D17B6801221A70A5
:1010900002E07B6800221A70FB6918462037BD46C3
:1010A00080BD00BF8CA8010080B584B000AF78601F
:1010B0000B46FB701346BB70FB78012B02D91D4811
:1010C000FFF7F2F97B6858687B68196807F1080335
:1010D000002215F0FDFDF860FB68002B24D1BB68F1
:1010E00023F48053BB60FB78012B04D1BB6843F42D
:1010F0000053BB6003E0BB6823F40053BB60BB78C4
:10110000012B04D1BB6843F48073BB6003E0BB6870
:1011100023F48073BB607B6858687B681968BB6880
:10112000002215F0C1FDF860FB6818461037BD4677
:1011300080BD00BFCCA8010080B584B000AF78604E
:10114000084611461A460346FB700B46BB70134611
:101150007B70FB78012B02D94848FFF7A5F9BB78D3
:10116000012B02D94648FFF79FF97B78002B46D028
:10117000FB78002B13D1BB78012B03D14FF4C24372
:10118000BB6002E04FF48243BB607B6858687B68B9
:101190001968BB68002215F087FD034669E0BB783B
:1011A000012B02D03748FFF77FF94FF4C243BB60F1
:1011B0007B6858687B681968BB68002215F074FD6D
:1011C000F860FB68002B01D0FB6852E07B68586830
:1011D0007B68196807F108031F2215F079FDF86094
:1011E000FB68002B44D17B6858687B681968BB6832
:1011F00043F004031F2215F057FD034639E0FB7846
:10120000002B1CD17B6858687B68196807F10803BC
:10121000002215F05DFDF860FB68002B28D1BB684B
:1012200023F48043BB607B6858687B681968BB689F
:1012300043F40073002215F037FD034619E07B6884
:1012400058687B68196807F108031F2215F040FDF4
:10125000F860FB68002B0BD17B6858687B681968C5
:10126000BB6823F004031F2215F01EFD034600E0B7
:10127000FB6818461037BD4680BD00BFFCA80100C2
:101280002CA901005CA9010080B586B000AF786090
:101290007B687B617B691B683B61386911F02EFDBF
:1012A000F860094AFB6852F82330184615F04AFDE9
:1012B0007B695B6800221946386912F02BFA00BF7F
:1012C0001837BD4680BD00BF8CDD010080B588B0F9
:1012D00000AFF860B9607A603B603B68002B02D1D8
:1012E0001648FFF7E1F8FB68FB61FB691B68BB610F
:1012F00000237B614FF40001B86915F056FD02230D
:101300007A68B968B86918F04BFAB86915F089FDC0
:1013100078617B69002B01D07B690BE0B86915F01F
:101320002BFD02463B681A604FF40001B86915F0C6
:101330003CFD7B6918462037BD4680BDA0A9010051
:1013400080B586B000AF786039600E23FB820EF066
:10135000E7FD7B685B890E2B6ED97B68DB7B002BFE
:1013600006D13B6893F830300133DAB27B68DA7328
:101370007B685B683B613B691A7B5B7B1B021343A9
:10138000FB813B691B7803F00103002B23D03B69F1
:101390001B78012B0FD13B695B78002B1BD13B697C
:1013A0009B785E2B17D17B685B7B43F01003DAB22E
:1013B0007B685A730FE03B6906222849184618F0EB
:1013C00064FC0346002B06D17B685B7B43F008037B
:1013D000DAB27B685A73FB89082B03D0B3F5C16F6F
:1013E00014D032E03B6893F82D3003F00803002B53
:1013F00024D0FB8A1946786805F09CFE0346002B32
:101400001ED13968786802F0C5FD13E03B6893F897
:101410002D3003F00803002B14D0FB8A194678689E
:1014200005F088FE0346002B0ED13968786801F07C
:101430005BFF00BF00230CE000BF06E000BF04E03C
:1014400000BF02E000BF00E000BF786805F0BCFE0E
:10145000002318461837BD4680BD00BFC8A901004B
:1014600080B586B000AFF860B9607A603B603B8CB5
:10147000184615F085FE0346FB820E21B86816F06B
:101480007EFA0346002B23D10EF04AFDBB685B6851
:101490003B613B69FA8A9A813B69062239681846A2
:1014A00018F0D7FB3B69063306227968184618F016
:1014B000D0FBFB6893F82C30062B02D008480EF0C6
:1014C00051FCFB689B69B968F8689847034602E0DD
:1014D00000BF6FF0010318461837BD4680BD00BF3E
:1014E000D8A9010080B500AF1E4B1B78002B30D16E
:1014F0001D4B1B68002B02D01C480EF033FC16F06D
:101500001BFC0346184A1360174B1B68002B02D1C3
:101510004FF0FF3324E0144B1B685A7A124B1B68C0
:1015200042F02002D2B25A720F4B1B68442210497B
:1015300018460CF057FA0C4B1B6843220C4918460E
:101540000CF0D8FA084B1B6800220A4918460CF028
:101550003DFB044B1B780133DAB2024B1A700023B7
:10156000184680BDCCE600208C4E00200CAA01005D
:1015700068AF0100C529000080B500AF0D4B1B7896
:10158000002B02D10C480EF0EDFB0A4B1B78013BFF
:10159000DAB2084B1A70074B1B78002B07D1074BA8
:1015A0001B6818460CF032FB044B00221A6000BF87
:1015B00080BD00BFCCE6002034AA01008C4E002084
:1015C00080B584B000AF78607B681B6AFB600C213B
:1015D000F86815F0D4FC064B054A0549786805F013
:1015E000D5FA786800F0AEFA00BF1037BD4680BD6E
:1015F00068AF010080B584B000AF786039607B6867
:101600001B6AFB600C4B9B78002B11D0FB680022FF
:101610001A810A4B9B68184615F0C7FD0246FB6805
:101620009A613B681A69FB68DA61786800F008F82B
:1016300000BF1037BD4680BD804E0020584E0020B0
:10164000B0B58AB002AF78607B68002B08D17048D3
:1016500014F02FFB6F4814F02CFB6FF00F03D2E057
:101660007B681B6ABB61BB69002B08D16A4814F018
:1016700020FB684814F01DFB6FF00503C3E0012157
:10168000B86915F07CFC07F10C030322B96978688E
:1016900001F056FA78617B69002B00F085807B6948
:1016A0005B683B61B8893B6903F1F0010223392291
:1016B00000F046FE0346BB81B8893B6903F1F001A7
:1016C0007B689B8C1A4600F085FE0346BB81B88977
:1016D0003B6903F1F0010423322200F031FE03469E
:1016E000BB81BC893B6903F1F005BB69DB69184626
:1016F00015F05BFD03461A462946204600F094FE8D
:101700000346BB81B8893B6903F1F001042336220B
:1017100000F016FE0346BB81BC893B6903F1F0056E
:10172000BB699B69184615F040FD03461A462946D9
:10173000204600F079FE0346BB81B8893B6903F17E
:10174000F0010423372200F0FBFD0346BB81002398
:10175000FB770EE0B8893B6903F1F001FB7F2F4A6C
:10176000D35C1A4600F018FE0346BB81FB7F0133B1
:10177000FB77FB7F032BEDD9B8893B69F0337A699E
:10178000194615F016FC264B1868264B01937B680A
:1017900000934323244A79690CF02EF80346BB7763
:1017A000786905F011FD01E0FF23BB77BB699B79E8
:1017B000FF2B05D0BB699B790133DAB2BB699A7103
:1017C000BB699B79052B0DD8BB699B791A46012310
:1017D00093409BB21A465201D21A92001344DB0086
:1017E0009BB201E04EF66023FB81FB8903F2F31309
:1017F0000E4A82FB03125211DB17D31A9AB2BB694D
:101800001A8197F91E3018462037BD46B0BD00BF7B
:1018100058AA01003CA7010074AA0100280000207A
:101820008C4E002068AF01006CAF0100D34D6210F8
:1018300080B582B000AF274B1B687B6042E07B68BD
:101840001B6A3B603B68002B39D03B685B79002BFF
:1018500035D03B689B8A002B12D03B685B8A0133F2
:101860009AB23B685A823B685A8A3B689B8A9A4282
:1018700006D1786800F0C4FC786800F0E7F81EE054
:101880003B681B8A002B0BD03B681B8A5A1E91B207
:101890003A681182012B03D1786815F03EFB0EE007
:1018A0003B68DB89002B0AD03B68DB895A1E91B26A
:1018B0003A68D181012B02D1786815F000FB7B6872
:1018C0001B687B607B68002BB9D100BF00BF083765
:1018D000BD4680BDF4DA002080B582B000AF164B63
:1018E0001B687B6020E07B681B6A3B603B68002BC9
:1018F00017D03B681B89012B06D93B681B89013B2C
:101900009AB23B681A810CE03B681B89012B08D115
:101910003B681B89013B9AB23B681A81786815F0D5
:1019200095FA7B681B687B607B68002BDBD100BF6E
:1019300000BF0837BD4680BDF4DA002080B586B010
:1019400000AF786039607B681B6A3B613B690022AD
:101950001A623B6900225A623A4BDB78002B03D0B3
:10196000394BDA683B699A62364B1B79002B04D0FD
:10197000354B1A693B69DA6204E03B699B6A5A0895
:101980003B69DA622F4B5B79002B04D02E4B5A69EE
:101990003B691A6307E03B699A6A1346DB009B1AAE
:1019A000DA083B691A633B681A693B69DA61254BBF
:1019B0009B79002B0FD0244B9B69184615F0F5FB43
:1019C00002463B691A623B69DB7943F00103DAB2F4
:1019D0003B69DA7106E03B69DB7923F00103DAB297
:1019E0003B69DA71174BDB79002B07D0164BDB69AB
:1019F000184615F0DAFB02463B695A620023FB7574
:101A000013E0FB7D0833104A52F82330184615F0D6
:101A1000CCFB0346FB6007F10C02FB7D1146184628
:101A200003F0B4FCFB7D0133FB75FB7D012B05D876
:101A3000FB7D0833034AD35C002BE2D100BF18378B
:101A4000BD4680BD804E0020584E002080B584B039
:101A500000AF78600EF064FA7B68002B08D136483E
:101A600014F027F9354814F024F96FF00F035FE004
:101A70007B6893F82D3003F00103002B08D1304828
:101A800014F017F92D4814F014F96FF00F034FE01C
:101A90007B681B6AFB607B689B8CB3F5107F02D26E
:101AA0004FF0FF3344E0FB68002B0DD1342004F0ED
:101AB000C7FDF860FB68002B02D14FF0FF3337E021
:101AC0007B68FA681A6205E0FB681B79002B01D07D
:101AD000FFF752FD34220021F86818F0BCF8FFF738
:101AE00001FD0346002B02D04FF0FF3320E0FB68DE
:101AF00001221A717B6893F82D3003F00403002B48
:101B000005D10221F86815F03AFA002310E0786850
:101B100000F018F80346FB7297F90B30002B05D044
:101B2000786800F06DFB4FF0FF3301E097F90B3060
:101B300018461037BD4680BD90AA01003CA70100A1
:101B4000D4AA010080B58AB002AF78607B681B6AB6
:101B5000BB610023FB75BB690022DA610621B8690D
:101B600015F00DFA07F108030122B969786800F051
:101B7000E7FF38613B69002B4BD03B695B68FB603A
:101B80003889FB6803F1F0010223392200F0D8FB09
:101B900003463B813889FB6803F1F0017B689B8C2D
:101BA0001A4600F017FC03463B813889FB6803F1B5
:101BB000F0010423372200F0C3FB03463B810023DE
:101BC000FB770EE03889FB6803F1F001FB7F294ABF
:101BD000D35C1A4600F0E0FB03463B81FB7F0133F8
:101BE000FB77FB7F032BEDD93889FB68F0333A692B
:101BF000194615F0DEF9204B1868204B01937B68DD
:101C0000009343231E4A39690BF0F6FD386905F04D
:101C1000DBFABB699B79FF2B05D0BB699B7901334C
:101C2000DAB2BB699A71BB699B79052B0DD8BB6988
:101C30009B791A46012393409BB21A465201D21A4D
:101C400092001344DB009BB201E04EF660237B81DF
:101C50007B8903F2F3130B4A82FB03125211DB1749
:101C6000D31A9AB2BB691A8197F9173018462037F0
:101C7000BD4680BD280000208C4E002068AF0100CA
:101C80006CAF0100D34D621080B588B000AF7860B2
:101C90007B68002B06D15E4814F00BF85D4814F009
:101CA00008F8B1E07B681B6AFB61FB69002B06D179
:101CB000594813F0FEFF574813F0FBFFA4E0FB69FF
:101CC00000225A82FB699B6AB3F1FF3F19D0FB697E
:101CD0009B6A1E33514AA2FB03235B09BB61BB69AC
:101CE000B3F5803F02D34FF6FF73BB61BB699AB275
:101CF000FB699A82FB699B8A002B02D1FB69012256
:101D00009A82FB69DB6AB3F1FF3F1DD0FB69DB6A96
:101D10001E33424AA2FB03235B09BB61BB69B3F5D7
:101D2000803F02D34FF6FF73BB61BB699AB2FB6978
:101D30005A81FB695B89002B02D1FB6901225A8120
:101D4000FB695A89FB69DA81FB691B6BB3F1FF3FC1
:101D50001DD0FB691B6B1E33304AA2FB03235B09BA
:101D6000BB61BB69B3F5803F02D34FF6FF73BB6124
:101D7000BB699AB2FB699A81FB699B89002B02D1EE
:101D8000FB6901229A81FB699A89FB691A82FB69C6
:101D90005A89FB699B899A4206D3FB699B89002B70
:101DA00002D0FB6900225A81FB69DB7903F0010351
:101DB000002B03D0FB691B6A3B6114E0FB691C33F9
:101DC0001B78FB7597F91730002B02DBFF233B6173
:101DD00009E0FB7DBF2B03D96FF07F433B6102E03D
:101DE0004FF6FF733B61FB695B6AFB600A21F86990
:101DF00015F0C5F8FB6903F11C0107F10C0307F1AD
:101E00001002786804F0C2FE2037BD4680BD00BFD6
:101E1000F8AA01003CA7010014AB0100898888885A
:101E200080B58AB002AF78607B681B6ABB610EF038
:101E300077F80521B86915F0A2F807F10C03032221
:101E4000B969786800F07CFE78617B69002B4ED020
:101E50007B695B683B61B8893B6903F1F001022350
:101E6000392200F06DFA0346BB81B8893B6903F162
:101E7000F0017B689B8C1A4600F0ACFA0346BB81EC
:101E8000B8893B6903F1F0010423372200F058FAC6
:101E90000346BB810023BB770EE0B8893B6903F1A1
:101EA000F001BB7F2A4AD35C1A4600F075FA03465C
:101EB000BB81BB7F0133BB77BB7F032BEDD9B889D7
:101EC0003B69F0337A69194615F073F8214B1868AD
:101ED000BB6903F118027B680093432379690BF017
:101EE0001DFC0346FB77786905F06EF901E0FF23DE
:101EF000FB77BB699B79FF2B05D0BB699B790133CD
:101F0000DAB2BB699A71BB699B79092B0AD8BB69A4
:101F10009B799BB21A465201D21A920013441B01BC
:101F20009BB201E044F62063FB81FB8903F2F313CB
:101F3000094A82FB03125211DB17D31A9AB2BB690A
:101F40001A8197F91F3018462037BD4680BD00BF63
:101F5000280000208C4E0020D34D621080B58AB03E
:101F600002AF78607B681B6ABB610421B86915F019
:101F700006F807F10C030322B969786800F0E0FD68
:101F800078617B69002B4CD07B695B683B61B889C9
:101F90003B6903F1F0010223392200F0D1F9034635
:101FA000BB81B8893B6903F1F0017B689B8C1A46C1
:101FB00000F010FA0346BB81B8893B6903F1F001D8
:101FC0000423372200F0BCF90346BB810023BB7712
:101FD0000EE0B8893B6903F1F001BB7F294AD35C6D
:101FE0001A4600F0D9F90346BB81BB7F0133BB77AA
:101FF000BB7F032BEDD9B8893B69F0337A69194669
:1020000014F0D7FF204B18687B68009343231F4AC6
:1020100079690BF083FB0346FB77786905F0D4F808
:1020200001E0FF23FB77BB699B79FF2B05D0BB69E0
:102030009B790133DAB2BB699A71BB699B79092B31
:102040000AD8BB699B799BB21A465201D21A9200F8
:102050001344DB009BB201E042F21073FB81FB8969
:1020600003F2F3130A4A82FB03125211DB17D31A4D
:102070009AB2BB691A8197F91F3018462037BD46BE
:1020800080BD00BF280000208C4E00206CAF0100F6
:10209000D34D6210B0B58AB002AF78607B681B6A1E
:1020A000BB610321B86914F06AFF07F10C03032236
:1020B000B969786800F044FD78617B69002B66D0CF
:1020C0007B695B683B61B8893B6903F1F0010223DE
:1020D000392200F035F90346BB81B8893B69F033FA
:1020E0004FF41072194600F075F90346BB81B889A8
:1020F0003B6903F1F0010423322200F021F9034689
:10210000BB81BC893B6903F1F005BB69DB691846FB
:1021100015F04BF803461A462946204600F084F98C
:102120000346BB81B8893B6903F1F00104233722E0
:1021300000F006F90346BB810023BB770EE0B889A7
:102140003B6903F1F001BB7F294AD35C1A4600F0DA
:1021500023F90346BB81BB7F0133BB77BB7F032BD6
:10216000EDD9B8893B69F0337A69194614F021FF3B
:10217000204B18687B68009343231F4A79690BF052
:10218000CDFA0346FB77786905F01EF801E0FF23DE
:10219000FB77BB699B79FF2B05D0BB699B7901332A
:1021A000DAB2BB699A71BB699B79092B0AD8BB6902
:1021B0009B799BB21A465201D21A92001344DB005B
:1021C0009BB201E042F21073FB81FB8903F2F3132F
:1021D0000A4A82FB03125211DB17D31A9AB2BB6967
:1021E0001A8197F91F3018462037BD46B0BD00BF91
:1021F000280000208C4E00206CAF0100D34D6210EF
:10220000B0B58AB002AF78607B681B6AFB610DF0E5
:1022100087FEFB69002B00F08980FB695B79002B4E
:1022200000F08680FB699B693B61FB6900229A6133
:10223000FB690022DA61FB6900221A62FB69002255
:102240005A62FB6900221A63FB691A6BFB69DA6246
:10225000FB69DA6AFB699A62FB6900229A82FB6970
:102260009A8AFB695A82FB695A8AFB691A82FB695E
:102270001A8AFB69DA81786814F0C9FE0346002BDC
:1022800046D00021F86914F07AFE07F10E03072208
:10229000F969786800F054FCB861BB69002B30D054
:1022A000BB695B687B61F8897B6903F1F0010423FA
:1022B000362200F045F80346FB81FC897B6903F177
:1022C000F0053B69184614F070FF03461A4629468C
:1022D000204600F0A9F80346FB81F8897B69F033BA
:1022E000BA69194614F065FE134B186807F110021D
:1022F0007B6800934323B9690BF010FAB86904F0C6
:1023000063FF0E4B0D4A0D49786804F03FFC03E073
:102310000021F86914F033FEFB691B79002B08D00B
:10232000FFF72AF9FB6900221A7102E000BF00E002
:1023300000BF2037BD46B0BD8C4E002068AF010005
:1023400080B582B000AF396011461A460346FB8063
:102350000B467B7113463B71FA883B791344023379
:10236000442B02D90B480DF0FDFCFB885A1CFA8067
:102370001A463B6813447A791A70FB885A1CFA8013
:102380001A463B6813443A791A70FB881846083796
:10239000BD4680BD2CAB010080B582B000AF0346C6
:1023A0003960FB8013467B71FB88432B02D90848B8
:1023B0000DF0D8FCFB885A1CFA801A463B6813447F
:1023C0007A791A70FB8818460837BD4680BD00BF71
:1023D00070AB010080B582B000AF03463960FB806E
:1023E0001346BB80FB880233442B02D90D480DF005
:1023F000B9FCBB881B0A9AB2FB88591CF9801946A4
:102400003B680B44D2B21A70FB885A1CFA801A46F9
:102410003B681344BA88D2B21A70FB881846083752
:10242000BD4680BDA8AB010080B584B000AF0346B7
:10243000B9607A60FB81FB890433442B02D91748C9
:102440000DF090FC7B681A0EFB89591CF981194626
:10245000BB680B44D2B21A707B681A0CFB89591CFA
:10246000F9811946BB680B44D2B21A707B681A0A0C
:10247000FB89591CF9811946BB680B44D2B21A700A
:10248000FB895A1CFA811A46BB6813447A68D2B297
:102490001A70FB8918461037BD4680BDE4AB0100B9
:1024A00080B592B000AF7860396000233B630023B1
:1024B000FB620A220021B94817F0CDFB7B685B89DB
:1024C0002B2B02D86FF0010372E27B685B68FB6123
:1024D000F023BB877B681B897B877B687B63BB8F13
:1024E0007B830CE07B6B5B89BA8FD31ABB877B6BDA
:1024F0005B897A8FD31A7B877B6B1B687B637B6BD3
:10250000002B04D07B6B5B89BA8F9A42EAD27B6B3B
:10251000002B02D16FF001034AE2BB8FA7F84630CF
:102520007B8FFB877B6B5B683B64FFE1B7F84630D2
:102530003A6C13441B787B76002387F82A304FF0DF
:10254000FF337B62B7F8463002337B847A8CB7F86E
:1025500046309A4202D26FF0010329E2B7F84630C2
:1025600001337A6B5289934208DAB7F84630013367
:102570003A6C13441B7887F82B300BE07B6B1B689D
:10258000002B04D07B6B1B685B681B7800E000238A
:1025900087F82B3097F82B3087F82A307B7E3B2B3F
:1025A00000F2FE8001A252F823F000BF9D26000039
:1025B000AD260000A1270000C1260000A1270000D1
:1025C000A1270000DF260000A1270000A1270000AE
:1025D000A1270000A1270000A1270000A1270000DB
:1025E000A1270000A1270000A1270000A1270000CB
:1025F000A1270000A1270000A1270000A1270000BB
:10260000A1270000A1270000A1270000A1270000AA
:10261000A1270000A1270000A1270000A12700009A
:10262000A1270000A1270000A1270000A12700008A
:10263000A1270000A1270000A1270000A12700007A
:10264000A1270000A1270000A1270000A12700006A
:10265000A1270000A1270000A1270000A12700005A
:10266000A1270000A1270000A1270000A12700004A
:10267000A1270000A1270000192700002D27000036
:102680004D27000061270000A1270000A1270000BE
:10269000A12700007527000089270000002387F884
:1026A0002B3097F82B3087F82A307DE097F82B30C5
:1026B000042B02D06FF005037AE106237B6273E0FE
:1026C000042387F82A3097F82B2097F82A309A426B
:1026D00002D26FF005036BE107237B6264E097F899
:1026E0002B3003F00303DBB2002B02D06FF00503A5
:1026F0005EE197F82B30082B28BF082387F82A3093
:1027000097F82B2097F82A309A4202D26FF00503EF
:102710004EE108237B6247E097F82B30042B02D070
:102720006FF0050344E103237B623DE097F82B3013
:10273000012B02D06FF005033AE17B8BF02B02D026
:102740006FF0050334E100237B622DE097F82B3016
:10275000012B02D06FF005032AE101237B6223E005
:1027600097F82B30042B02D06FF0050320E10223F1
:102770007B6219E097F82B30042B02D06FF0050331
:1027800016E104237B620FE097F82B30042B02D074
:102790006FF005030CE105237B6205E0804E00200D
:1027A000002387F82A3000BF7B7E002B05D1B7F8C5
:1027B00046300133A7F8463091E0B7F8462097F845
:1027C0002B3013444FF6FD72934202DD6FF001038C
:1027D000EEE097F82B309AB2B7F8463013449BB22C
:1027E0000233A7F8463097F82A30002B77D0002321
:1027F000FB607B6A002B02DB7B6A092B02DD6E48E3
:102800000DF0B0FA6D4A7B6A13441B78002B66D139
:1028100097F82A30042B28BF0423DBB2FB827B8C81
:10282000FA8A07F10C01786B04F0CCFE03461A46D5
:10283000FB8A934202D06FF00103B9E097F82A3087
:10284000042B2CD997F82A3003F00303DBB2002BBA
:1028500002D06FF00503ABE0584A7B6A13440122B3
:102860001A70FB68184614F0A0FC024654497B6AB3
:1028700041F8232097F82A30043B87F82A307B8CD4
:102880000433BB82BA8A7B8C9A4202D26FF0010376
:102890008EE0BB8A7B847B6A01337B62A9E797F871
:1028A0002A30042B06D1FB68184614F07EFC034640
:1028B000FB600AE097F82A30012B02D06FF0050385
:1028C00076E007F10C031B78FB603C4A7B6A1344FB
:1028D00001221A70FA683A497B6A41F823207B6B1F
:1028E0005B89B7F846209A4220D37B6B5B89B7F8A7
:1028F0004620D31AA7F846307B6B5B89FA8FD31A30
:10290000FB87B7F84620FB8F9A420CD27B6B1B6883
:102910007B637B6B002B02D16FF0050348E07B6B80
:102920005B683B6402E06FF0010341E07B6B002BCE
:102930000CD0B7F84620FB8F9A4207D2B7F8463042
:102940003A6C13441B78FF2B7FF4F0AD1B4B1B78C4
:10295000002B18D01A4B1B683B61184B00221A70D1
:102960003B69012B02D101233B630CE03B69022B45
:1029700002D10123FB6206E03B69032B03D1012353
:10298000FB6201233B633B6B002B06D000233B63C0
:102990006C23BB87EC237B879FE5FB6A002B06D06B
:1029A0000023FB622C23BB876C237B8795E50023E8
:1029B00018464837BD4680BD20AC0100804E00203F
:1029C000584E002080B58AB000AFF860B9607A60D8
:1029D0003B60584B5B68FB61FB691B6ABB617B68B2
:1029E0005B687B61BB69002B00F08E80BB691B7943
:1029F000002B00F089807B685B892B2B40F286805E
:102A00007B691B78022B40F083800023FB740DE070
:102A1000FB7CFA69134493F82620FB7C79690B440C
:102A20001B7F9A4276D1FB7C0133FB74FB6993F8E0
:102A30002C30FA7C9A4202D2FB7C052BE8D97B69C8
:102A40005B68184614F0B1FB0246BB691B689A42EA
:102A500062D1B9697868FFF723FD0346002B5DD189
:102A6000354B5B78002B5BD07B685B683B62334BFC
:102A70005B6887F8273097F82730052B1FD1BB6993
:102A80005B79012B03D0BB695B79032B07D1396AD2
:102A9000F869FEF753FFF869FFF7F6F843E0BB6902
:102AA0005B79042B03D0BB695B79052B3BD1396A79
:102AB000F869FEF743FFF869FFF7E6F833E097F8A7
:102AC0002730062B13D1BB695B79032B0BD0BB6975
:102AD0005B79012B07D0BB695B79042B03D0BB6901
:102AE0005B79052B03D1F869FEF76AFD1BE097F8C7
:102AF0002730022B16D1BB695B79062B12D1396ABC
:102B0000F869FEF777FD0EE000BF0CE000BF0AE0B9
:102B100000BF08E000BF06E000BF04E000BF02E025
:102B200000BF00E000BF786804F04EFB00BF28370C
:102B3000BD4680BD20540020804E0020584E00200D
:102B400080B588B000AFF860B9603B601346FB7198
:102B5000FB68002B07D15C4813F0ABF85B4813F01F
:102B6000A8F80023ABE0BB68002B07D1584813F04E
:102B7000A0F8564813F09DF80023A0E04FF420720F
:102B80004FF49A71362004F0E7F8B861BB69002B66
:102B900001D1002393E0BB695B89B3F59A7F02D230
:102BA0004C480DF0DFF8FB79032B03D1BB685B7950
:102BB000032B0CD1BB689B79002B04D10DF0E2F8FC
:102BC0000346454A1360444B1A68BB681A60BB69E8
:102BD0005B687B614FF49A720021786917F03BF8CB
:102BE0007B6901221A707B6901225A70FB6893F895
:102BF0002C207B699A70BB681B68184614F0D5FAC4
:102C000002467B695A60FB79082B10D0FB79042BB4
:102C10000DD0FB79072B0AD0FB79032B0CD1BB68B5
:102C20005B79052B03D0BB685B79042B04D1FB686F
:102C300004331A687B69DA600023FB830CE0FA8BAB
:102C4000FB8BF9680A4492F826107A6913440A4605
:102C50001A77FB8B0133FB83FB8B052BEFD97B6949
:102C6000002242F0630283F8EC20002262F07D0231
:102C700083F8ED20002242F0530283F8EE20002278
:102C800042F0630283F8EF207B6903F1F001012336
:102C900035220020FFF754FB03467B827B6903F15A
:102CA000F001FA797B8A1846FFF776FB03467B82B0
:102CB0003B68002B02D03B687A8A1A80BB691846B1
:102CC0002037BD4680BD00BF34AC01003CA70100E9
:102CD00054AC010074AC0100904E002080B582B06D
:102CE00000AF78602B497A6813465B001344DB0021
:102CF0000B441B68002B13D026497A6813465B00EF
:102D00001344DB000B441B68184604F05DFA2149AC
:102D10007A6813465B001344DB000B4400221A6000
:102D20001C497A6813465B001344DB000B441433E0
:102D300000221A7017497A6813465B001344DB00BF
:102D40000B44123300221A8012497A6813465B0042
:102D50001344DB000B44083300221A600D497A68E3
:102D600013465B001344DB000B44043300221A605B
:102D700008497A6813465B001344DB000B440833B0
:102D8000054A04331068186092889A8000BF08379B
:102D9000BD4680BD944E0020D0A9010080B582B010
:102DA00000AF00237B6096E04F497A6813465B00D2
:102DB0001344DB000B4414331B78FB70FB78002BAF
:102DC00000F0868048497A6813465B001344DB00B4
:102DD0000B4412331B88013398B243497A68134677
:102DE0005B001344DB000B44123302461A803E4959
:102DF0007A6813465B001344DB000B4412331B88D4
:102E0000B3F5967F15D238497A6813465B001344B0
:102E1000DB000B4414331B78012B0ED132497A6846
:102E200013465B001344DB000B4412331B88042B56
:102E300003D97868FFF752FF4AE02B497A681346B6
:102E40005B001344DB000B4414331B78032B0AD1C3
:102E500025497A6813465B001344DB000B441433A6
:102E600004221A7034E020497A6813465B00134448
:102E7000DB000B4414331B78042B0AD11A497A68FF
:102E800013465B001344DB000B44143302221A7018
:102E90001EE015497A6813465B001344DB000B44BF
:102EA00014331B78012B13D10F497A6813465B004A
:102EB0001344DB000B44083318687A6813465B0040
:102EC0001344DB00084A13440433194600F01CFE87
:102ED0007B6801337B607B68092B7FF765AF00BFA0
:102EE00000BF0837BD4680BD944E002080B58AB033
:102EF00000AFF8600B467A60FB720A233B840A231A
:102F00007B840A23BB840023FB840A23FB830023E6
:102F1000BB8300237B8300233B830023FB84AAE045
:102F2000B7F926209C4913465B001344DB000B4491
:102F300014331B78FB75B7F924300A2B05D1FB7DC0
:102F4000002B02D1FB8CBB8491E0FB7D002B00F0B9
:102F50008E80FB7D012B05D0FB7D012B02D88F4895
:102F60000CF000FFFB68002B20D0FB681968B7F954
:102F70002620894813465B001344DB0003440433D6
:102F80001B68994212D17B68002B0CD0B7F9262020
:102F9000814913465B001344DB000B4408331B6874
:102FA0007A689A4202D1B7F92630F0E0FB7D012B16
:102FB00040D1B7F92620784913465B001344DB0063
:102FC0000B441B68002B1AD0B7F926207249134610
:102FD0005B001344DB000B4412331B88BA8B9A420C
:102FE00045D8FB8CFB83B7F926206B4913465B0061
:102FF0001344DB000B4412331B88BB8337E0B7F963
:103000002620654913465B001344DB000B44123352
:103010001B887A8B9A422AD8FB8C3B84B7F92620EE
:103020005D4913465B001344DB000B4412331B88DD
:103030007B831CE0FB7D012B19D9B7F9262056496B
:1030400013465B001344DB000B4412331B883A8B9E
:103050009A420CD8FB8C7B84B7F926204E49134644
:103060005B001344DB000B4412331B883B83FB8C57
:1030700001339BB2FB84B7F92630092B7FF750AFA1
:10308000FB7A03F00203002B08D1B7F924300A2B96
:1030900007D1FB7A03F00103002B02D14FF0FF337D
:1030A00075E0B7F92430092B02DCBB8CFB8431E0DE
:1030B000B7F92230092B10DC7B8CFB84B7F9262072
:1030C000354913465B001344DB000B441B68002B9F
:1030D00014D033480CF046FE10E0B7F92030092B2D
:1030E00002DC3B8CFB8409E0B7F91E30092B02DCC3
:1030F000FB8BFB8402E04FF0FF3348E0B7F926304A
:10310000092B02DD27480CF02DFEB7F926301846B2
:10311000FFF7E4FDB7F92630092B02DD21480CF05A
:1031200021FEB7F926201C4913465B001344DB003F
:103130000B4414331B78002B02D01B480CF012FEFA
:10314000FB68002B0BD0B7F92620FB6819681248E2
:1031500013465B001344DB00034404331960B7F9E2
:1031600026200D4913465B001344DB000B44123349
:1031700000221A80B7F92620074913465B00134442
:10318000DB000B4408337A681A60B7F9263018461A
:103190002837BD4680BD00BF944E0020B4AC01006E
:1031A000F4AC01000CAD010020AD010080B588B089
:1031B00002AFF860B9607A60FB70FB6893F82C305E
:1031C000062B02D046480CF0CDFDBB68002B12D078
:1031D000BB681B68002B0ED0BB681B68F9681846DB
:1031E00013F085FF0346002B05D1BB681B6803F075
:1031F000F003E02B02D16FF00F036CE0FB78FA686C
:103200001946B868FFF772FE0346FB82B7F916301D
:10321000002B02DAFB8A5BB25DE0B7F91620314978
:1032200013465B001344DB000B44143302221A7074
:10323000B7F916202B4913465B001344DB000B44FF
:103240000833FA681A60B7F9162013465B00134476
:10325000DB000833234A13440433062279681846F6
:1032600016F0F7FCB7F916201E4913465B0013440D
:10327000DB000B44123300221A80B7F916201949DB
:1032800013465B001344DB000B441B68002B21D06A
:10329000B7F91620134913465B001344DB000B44B7
:1032A0001B683B61B7F916200E4913465B001344B7
:1032B000DB000B4400221A60FB6803F126024FF486
:1032C000006300937B683969F868FEF7C9F83869CC
:1032D00003F07AFF002318461837BD4680BD00BFB3
:1032E0004CAD0100944E0020B0B58AB004AF7860B8
:1032F00039600CF015FE3B68002B06D1494812F0EE
:10330000D8FC494812F0D5FC88E07B685B683B61DB
:103310003B691B889BB2B3F5807F0CD13B691B795D
:10332000062B08D13B695B79042B04D13B695B8890
:103330009BB2082B03D0786803F046FF6EE03B6930
:1033400003F10E0107F10C030422184616F081FC6C
:103350003B6903F1180107F108030422184616F02F
:1033600078FC3B6804331B68002B04D10023FB75F9
:103370000023BB7513E0BA683B6804331B689A42AC
:103380000CBF01230023DBB2FB75FA683B680433F2
:103390001B689A420CBF01230023DBB2BB753B695B
:1033A00003F10802FB7D002B01D0012300E0022382
:1033B00007F10C013868FFF7F9FE3B69DB889BB227
:1033C000B3F5807F03D0B3F5007F21D023E0FB7DF0
:1033D000002B1FD0BB7D002B1CD13B6803F12600C6
:1033E0003B6903F108043B6803F126053B6804339D
:1033F0003A6908320221039107F10C01029101920E
:1034000000932B4622460146386800F0DBFA01E0C3
:1034100000BF00E000BF786803F0D6FE1837BD4655
:10342000B0BD00BF90AA01003CA7010080B586B0E6
:1034300002AFF860B9601346FB71FA79424913464E
:103440005B001344DB000B4414331B78012B02D8C0
:103450003E480CF087FCFA793B4913465B00134465
:10346000DB000B4414331B78022B53D1FA79364915
:1034700013465B001344DB000B4412331B88B3F587
:103480008E7F19D9FA7913465B001344DB002E4A6C
:10349000134404331946F86800F036FB0346002B4A
:1034A00038D1FA79284913465B001344DB000B44FA
:1034B000143303221A702DE0FA79234913465B0076
:1034C0001344DB000B4412331B88B3F5877F21D3F1
:1034D000FA7913465B001344DB001B4A1344191DA1
:1034E000FA7913465B001344DB000833164A134491
:1034F00004331A46F86800F0E5FA0346002B09D1B8
:10350000FA79114913465B001344DB000B44143372
:1035100003221A70FB6803F12601FA7913465B0057
:103520001344DB000833084A134404334FF40062A9
:1035300000920A46B968F868FDF792FF03461846FC
:103540001037BD4680BD00BF944E002090AD0100F5
:1035500080B58AB002AFF860B9607A607B68BB6101
:103560000CF0DEFCFB68002B02D16D480CF0FAFB7E
:10357000BB68002B02D16B480CF0F4FB7B68002B7E
:1035800002D169480CF0EEFB7B681B68F9681846AD
:1035900013F0ADFD0346002B02D0644BFB61AFE09E
:1035A0007B681B6803F0F003E02B18D101233B7408
:1035B00000237B745E23BB747B6801331B7803F0AC
:1035C0007F03DBB2FB747B6802331B783B757B683F
:1035D00003331B787B7507F11003FB6190E07B6878
:1035E0001A68FB6804331B685A40FB6808331B6881
:1035F0001340002B12D07B681B689BB24FF6A96268
:1036000093420BD0FB680C331B68002B03D0FB6884
:103610000C33BB6102E06FF003037DE0444B1B7889
:103620001946444A0B465B000B44DB001344143339
:103630001B78012B25D93E4B1B7819463D4A0B467A
:103640005B000B44DB00134408331B68FA689A42A2
:1036500017D1BB691A68364B1B78184635490346A3
:103660005B000344DB000B4404331B689A4208D11F
:103670002F4B1B781A46B968F868FFF7D7FE034648
:103680004AE00023FB7531E0FA7D2A4913465B00CE
:103690001344DB000B4414331B78012B23D9FA7D30
:1036A000244913465B001344DB000B4408331B68BA
:1036B000FA689A4217D1BB691968FA7D1D4813460A
:1036C0005B001344DB00034404331B6899420AD1B6
:1036D000174AFB7D1370FB7D1A46B968F868FFF73F
:1036E000A5FE034618E0FB7D0133FB75FB7D092B2E
:1036F000CAD9BA68B969F86800F01EF803460BE049
:10370000FB6803F126024FF400630093FB69B9687C
:10371000F868FDF7A5FE034618462037BD4680BD74
:1037200090AA0100C0AD010070AD0100C8A9010060
:10373000CDE60020944E002080B58CB002AFF8603A
:10374000B9607A60FB6826337B61FF2387F82330FA
:1037500000237B62BB681B68F968184613F0C7FC3E
:103760000346002B0CD1BB681B6803F0F003E02B71
:1037700006D0BB68002B03D0BB681B68002B02D1AE
:103780006FF00F030DE1FA680121B868FFF7AEFB97
:1037900003467B82B7F91230002B02DA7B8A5BB2D8
:1037A000FFE07B8A7E2B02D980480CF0DBFA7B8A13
:1037B0007B747A7C7E4913465B001344DB000B4428
:1037C00014331B78002B15D101237B627A7C784956
:1037D00013465B001344DB000B44143301221A70C0
:1037E0007A7C734913465B001344DB000B440833B7
:1037F000FA681A607A7C6E4913465B001344DB005A
:103800000B4414331B78012B0DD07A7C6849134686
:103810005B001344DB000B4414331B78012B02D8EC
:1038200064480CF09FFA7B6A002B02D17B68002B66
:1038300028D1B968F86800F067F9034687F82330A3
:1038400097F92330002B17D17A7C594913465B0036
:103850001344DB000B4414331B78012B0CD17B6A1F
:10386000002B09D17A7C524913465B001344DB00DC
:103870000B44123300221A807B68002B02D197F987
:1038800023308EE07B68002B02D14B480CF06AFAA3
:103890007A7C474913465B001344DB000B44143326
:1038A0001B78012B17D9454A7B7C13707A7C134611
:1038B0005B001344DB0008333D4A134404334FF4E8
:1038C000006200927A697968F868FDF7C9FD0346DD
:1038D00087F8233063E07A7C354913465B00134454
:1038E000DB000B4414331B78012B58D10023BB6140
:1038F0007B68FB6118E0FB695A89FB691B899A4266
:1039000006D1FB691B68002B02D02D480CF02AFA67
:10391000FB691B7B03F04003002B02D00123BB613A
:1039200005E0FB691B68FB61FB69002BE3D1BB6908
:10393000002B07D07A684FF420710E2003F0F4FFBB
:10394000F86104E07B68FB61F86903F0B7FCFB6990
:10395000002B21D07A7C164913465B001344DB0010
:103960000B441B68002B0AD07A7C114913465B007C
:103970001344DB000B441B68184603F025FC7A7CDB
:103980000B4913465B001344DB000B44FA691A60D1
:10399000002387F8233002E0FF2387F8233097F9CC
:1039A000233018462837BD4680BD00BFCCAD01008E
:1039B000944E0020DCAD0100C0AD0100CDE600203A
:1039C00004AE010080B58AB002AFF860B9607A60D9
:1039D0003B600023FB77FB68002B02D136480CF0DC
:1039E000C1F94FF420721C210E2003F0B5F9B86123
:1039F000BB69002B02D14FF0FF3359E0BB695B89F3
:103A00001B2B02D82D480CF0ADF9BB695B687B61BC
:103A1000BB8E184613F0B4FB03461A467B69DA8066
:103A2000FB6893F82C30062B02D025480CF09AF94D
:103A30007B69083306223968184616F00AF97B6953
:103A400012330622F96A184616F003F97B690E3321
:103A50000422B96A184616F0FCF87B691833042270
:103A6000396B184616F0F5F87B6900221A700022AF
:103A700042F001025A707B69002242F008029A70FB
:103A80000022DA707B6906221A717B6904225A715E
:103A900040F6060300937B68BA68B969F868FDF7D9
:103AA000DFFCB86903F090FB0023BB6197F91F307E
:103AB00018462037BD4680BD90AA010020AE010007
:103AC00054AE010080B588B004AFF860B9607A6088
:103AD000FB6803F12601FB6803F12600FB68043351
:103AE00001220392BA680292064A019200930346A9
:103AF0007A68F868FFF766FF034618461037BD4638
:103B000080BD00BFD0A9010080B582B000AF786051
:103B10003960054A39687868FFF7D4FF03461846CC
:103B20000837BD4680BD00BFC8A9010080B58EB072
:103B300004AF786039608B4B9B687B627B6A1B7833
:103B400003F00F03DBB29B00DBB27B847B8C132B77
:103B500040F2F0807B685B89032B40F2ED807B684C
:103B60005B681B7887F821307B685B685B7887F837
:103B7000203097F82130002B00F0D580082B40F042
:103B8000D580794BFB61774B5B6903F0F003E02B49
:103B900000F0D980734B5B69724A1268114618466F
:103BA00013F0A5FA0346002B40F0CF807B681B89F9
:103BB000072B40F2C380786813F05DFD0346002BAD
:103BC00003D0786803F000FBC8E07B8C0E33194605
:103BD000786813F0D4FE0346002B48D07B681A891E
:103BE0007B8C13447B837B681B897A8B9A42C0F061
:103BF000AE807B8B4FF4207219460E2003F0ACF898
:103C000078617B69002B00F0A4807B695B891A4690
:103C10007B8C08339A4203D2786903F0D5FA99E095
:103C20007B695B687A8C796A184616F012F87B8C8F
:103C30001946786903F07EFA0346002B06D04B48FC
:103C40000CF090F8786903F0BFFA83E0796878693E
:103C500003F09EFB0346002B03D0786903F0B4FA0F
:103C600078E0786803F0B0FA7B697B600CE07B8CCD
:103C70000E331946786803F05DFA0346002B03D033
:103C80003B480CF06FF865E07B685B683B617B8CC0
:103C90001946786813F073FE0346002B45D17B6804
:103CA0005B68FB60FB691A68FB68DA602D4B1A6978
:103CB000FB681A613B6900221A703B695B889BB202
:103CC0004FF6F772934207D93B695B889BB2093381
:103CD0009AB23B695A8006E03B695B889BB2083325
:103CE0009AB23B695A80FB68FF221A72FB68002275
:103CF0009A720022DA727B8C1946F86813F0A9FCDC
:103D000003461A46FB685A813B68029301230193DC
:103D100000230093FF230022F969786813F0BDF9AE
:103D20000346FB7201E000BF00E000BF786803F0CB
:103D30004BFA13E000BF02E000BF00E000BF78686C
:103D400003F042FA0AE000BF04E000BF02E000BF57
:103D500000E000BF786803F037FA00BF2837BD469F
:103D600080BD00BF205400203454002098AE0100D4
:103D7000CCAE010080B58CB004AF78600B46FB7010
:103D80001346BB701C23FB837B681B89FA8B9A420A
:103D900002D97B681B89FB83FB8B08339BB24FF4F2
:103DA00020721946222002F0D7FFB861BB69002BB0
:103DB00050D0BB695B891A46FB8B08339A4202D20A
:103DC00026480BF0CFFF7B685B687B61BB695B6853
:103DD0003B613B69FA781A703B69BA785A703B6963
:103DE00000221A7100225A7100229A710022DA719F
:103DF000FA8B08237968B86903F0ECFA7B69DB6811
:103E0000BB6007F10803184600F02AF8F860FB6869
:103E1000002B1BD03B6900229A700022DA70BB692C
:103E20005B891946386913F014FC03461A463B694E
:103E30005A8007F10802FB680293012301930023D3
:103E40000093FF230021B86913F027F9B86903F044
:103E5000BBF900E000BF2037BD4680BD00AF0100C8
:103E600080B584B000AF78600CF05AF8324B1B6814
:103E7000FB6036E0FB6893F82D3003F00103DBB202
:103E8000002B2BD0FB6893F82D309B0803F0010327
:103E9000DBB2002B22D0FB6804331B68002B1DD043
:103EA0007B681A68FB6804331B685A40FB68083358
:103EB0001B681340002B01D1FB6838E0FB6893F8C6
:103EC0002D3003F00203002B08D17B681A68FB68D1
:103ED0000C331B689A4201D1FB6828E0FB681B6821
:103EE000FB60FB68002BC5D1144B1B68002B1AD05C
:103EF000124B1B6893F82D3003F00103002B12D0F6
:103F00000E4B1B6893F82D3003F00403002B0AD0EE
:103F10000A4B1B6804331B68002B04D07B681B68AA
:103F2000DBB27F2B01D1002301E0044B1B68184654
:103F30001037BD4680BD00BFF4DA0020F8DA00205B
:103F400080B582B000AF78607B6893F82D3003F0C5
:103F50000103DBB2002B16D07B6804331B68002BF7
:103F600011D00B4B5A697B6804331B689A4208D006
:103F7000074B5B697968184613F0B9F80346002BC4
:103F800001D0012300E0002318460837BD4680BD5C
:103F90002054002080B588B000AF786039600123DC
:103FA0003B610BF0BDFF7B685B68FB60FB681B78C7
:103FB0001B09DBB2042B04D0786803F005F9002359
:103FC0003DE1FB681B7803F00F03DBB29B00DBB223
:103FD0007B81FB685B889BB2184613F0D1F80346DF
:103FE000FB827B681B89FA8A9A4204D2FB8A1946B3
:103FF000786802F0BFFF7B685B897A899A4207D8AC
:104000007B681B89FA8A9A4202D87B89132B04D8D1
:10401000786803F0D9F8002311E17B891946F86824
:1040200013F017FB0346002B04D0786803F0CCF89C
:10403000002304E1FB681B69834A5361FB68DB686A
:10404000814A1361804B5B6903F0F003E02B12D1CE
:104050003B6893F82D3003F00103DBB2002B07D04F
:104060003B6804331B68002B02D03B68FB612AE0ED
:104070000023FB6127E03868FFF762FF0346002B4F
:1040800002D03B68FB611EE00023FB616E4B5B6965
:10409000DBB27F2B17D06D4B1B68FB610EE0FA691A
:1040A0003B689A4206D0F869FFF74AFF0346002BA7
:1040B00008D100E000BFFB691B68FB61FB69002BB6
:1040C000EDD100E000BFFB69002B11D1FB685B7AEA
:1040D000112B0DD17B89FA681344BB61BB695B88E6
:1040E0009BB2B3F5884F03D13B68FB6100233B6172
:1040F0003B69002B17D0544B1B69002B13D0524B3C
:104100001B693968184612F0F2FF0346002B05D1EF
:104110004D4B1B6903F0F003E02B04D1786803F0EA
:1041200053F800238BE0FB69002B04D1786803F07F
:104130004BF8002383E0FB68DB889BB21A464FF6FE
:104140003F731340002B0BD0786800F013FE7860AB
:104150007B68002B01D1002371E07B685B68FB600A
:10416000394AFB691360384A3B685360364AFB683A
:104170009360FB681B7803F00F03DBB29B00DBB29C
:104180009AB2314B9A813968786803F031FC034662
:104190007B727B7A012B3ED07B891946786802F0CE
:1041A000C9FFFB685B7A112B06D0112B13DC012BA6
:1041B0000CD0062B05D00EE03968786809F038F984
:1041C0002AE03968786805F0A1F925E0396878684F
:1041D000FFF7ACFC20E07B7A022B18D01A4B5B690E
:1041E000F969184612F083FF0346002B0FD1164BD6
:1041F0005B6903F0F003E02B09D0B7F90A301946E8
:10420000786813F0ECFB0221786812F026FF7868DA
:1042100002F0DAFF00E000BF0B4B00221A600A4BED
:1042200000225A60084B00229A60074B00229A81B4
:10423000054B00221A61044B00225A6100231846E4
:104240002037BD4680BD00BF20540020F4DA002096
:1042500080B588B000AFF860B9607A60FB70002369
:10426000FB610BF05DFEFB689B7B012B02D0794864
:104270000BF078FD7B68002B00F0C0801423FB82DC
:104280001421F86813F07BFB0346002B02D06FF07B
:104290000103DBE0FB685B68BB61FB685B89132B98
:1042A00002D86D480BF05EFDBB69FA781A72BB69E3
:1042B00097F82C205A7297F82C20FB781B02134396
:1042C0001B021AB297F82C10FB781B020B431B122F
:1042D0001BB2DBB21BB213431BB29BB21A46FB6983
:1042E0001344FB617B681A68BB691A61BB691B696F
:1042F0009BB2FA691344FB61BB691B691B0CFA6929
:104300001344FB61FB8A9B089BB2DBB243F0400382
:10431000DAB2BB691A70BB6997F828205A7097F80F
:104320002820BB691B781B0213431B021AB297F8A3
:104330002810BB691B781B020B431B121BB2DBB29C
:104340001BB213431BB29BB21A46FB691344FB61B9
:10435000FB681B89184612F013FF03461A46BB6917
:104360005A80BB695B889BB21A46FB691344FB61A8
:10437000BB6900229A710022DA71384B1B881846FB
:1043800012F0FEFE03461A46BB699A80BB699B8801
:104390009BB21A46FB691344FB61304B1B88013307
:1043A0009AB22E4B1A80BB68002B04D12C4B1A6892
:1043B000BB69DA6003E0BB681A68BB69DA60BB6995
:1043C000DB689BB2FA691344FB61BB69DB681B0CB9
:1043D000FA691344FB61FB691A0CFB699BB2134435
:1043E000FB61FB691B0CFA691344FB61FB69DB434E
:1043F000FB61FB699AB2BB695A810FE0FB685B897C
:10440000132B02D86FF0010320E0FB685B68BB61EF
:10441000BB691B693B6107F110037B603B6B9B8CA5
:10442000002B0CD0FB681A893B6B9B8C9A4206D9F7
:104430007A68396BF86800F067FE034606E03B6B6C
:104440005B697A68F968386B9847034618462037E5
:10445000BD4680BD2CAF010038AF0100BCE6002096
:1044600068AF010080B58AB000AF7860396007F1AD
:104470000C03FB617B681B7887F8223097F82230A9
:1044800080338A4AD35C03F02003002B01D1002340
:1044900007E100237B620A2387F8233097F8223054
:1044A000302B1CD17B6801337B607B681B7887F8DD
:1044B000223097F82230782B03D097F82230582BEF
:1044C0000AD1102387F823307B6801337B607B6837
:1044D0001B7887F8223002E0082387F8233097F80A
:1044E00022308033714AD35C03F02003002B1AD0B2
:1044F00097F82330082B04D197F82230303B072B54
:104500003BD897F823307A6A03FB02F297F82230FF
:104510001344303B7B627B6801337B607B681B7894
:1045200087F82230DBE797F82330102B26D197F855
:10453000223080335D4AD35C03F0A003002B1DD0F2
:104540007B6A1B0197F8222002F10A0197F82220CA
:1045500080325648825C02F00802002A01D06122B3
:1045600000E041228A1A13437B627B6801337B603F
:104570007B681B7887F82230B1E700BF97F82230BC
:104580002E2B14D107F10C030C33FA699A4201D394
:10459000002386E0FB691A1DFA617A6A1A607B685B
:1045A00001337B607B681B7887F8223066E700BFA9
:1045B00097F82230002B0AD097F8223080333B4AFC
:1045C000D35C03F00103002B01D1002369E007F164
:1045D0000C03FA69D31A9B100133042B52D801A2A1
:1045E00052F823F0F94500008D460000FD4500001B
:1045F0001F4600004D460000002352E07B6AB3F1E5
:10460000807F01D300234CE0FB68FF2B01D90023FE
:1046100047E0FB681B067A6A13437B6237E07B6ADC
:10462000B3F5803F01D300233BE0FB68FF2B02D8AA
:104630003B69FF2B01D9002333E0FB681A063B6975
:104640001B0413437A6A13437B6220E07B6AFF2BCF
:1046500001D9002325E0FB68FF2B05D83B69FF2B20
:1046600002D87B69FF2B01D900231AE0FB681A06E8
:104670003B691B041A437B691B0213437A6A134389
:104680007B6204E00A480BF06DFB00E000BF3B6872
:10469000002B05D0786A12F088FD02463B681A604C
:1046A000012318462837BD4680BD00BFE4E701005E
:1046B00070AF010080B582B000AF7860102204496D
:1046C000786800F007F8034618460837BD4680BDF5
:1046D000844F002080B48DB000AFF860B9607A607C
:1046E00000233B62FB681B68BB61BB68FB6207F190
:1046F0001803BB62002387F8273058E0002387F8AF
:104700002630BB6A1A78324BA3FB0213D9080B463A
:104710009B000B445B00D31AFB77BB6A1B782C4AC7
:10472000A2FB0323DB08DAB2BB6A1A7097F82630C3
:104730005A1C87F826201946FB7F3033DAB201F184
:1047400030033B4403F81C2CBB6A1B78002BD8D1E8
:1047500011E03B6A5A1C3A627A689A4201DC0023F3
:1047600030E097F82620FB6A591CF96230323A444F
:1047700012F81C2C1A7097F826305A1E87F826203B
:10478000002BE6D13B6A5A1C3A627A689A4201DCF5
:10479000002317E0FB6A5A1CFA622E221A70BB6AC9
:1047A0000133BB6297F82730013387F8273097F839
:1047B0002730032BA2D9FB6A013BFB62FB6A002274
:1047C0001A70BB6818463437BD465DF8047B7047E5
:1047D000CDCCCCCC80B584B000AF0023BB60124BF5
:1047E0001B68FB6018E0FB68DB7F002B0BD0FB68CD
:1047F000DB7F013BDAB2FB68DA77FB68BB60FB6802
:104800001B68FB6008E0FB687B60FB681B68FB6063
:10481000B968786800F00AF8FB68002BE3D100BFA4
:1048200000BF1037BD4680BD944F002080B588B0D2
:1048300000AF786039600023FB833A687B689A4256
:1048400002D13D480BF08EFA3B68002B07D03B6845
:104850001B687A689A4202D038480BF083FA7B686A
:104860005B685B687B617B699B889BB2002B27D16F
:104870007B685B68BB617B691A687B685A60BB694F
:1048800058687B6808331422194615F0E2F90121B3
:10489000B86912F0F2FBB86913F0B3F803467B82F3
:1048A000FA8B7B8A1344B3F5803F02DB24480BF07C
:1048B00059FAFA8B7B8A1344FB83B86902F084FCB3
:1048C0007B685B68BB611CE0BB695B687B61BB6943
:1048D000FB607B691B68BB61F86813F092F80346C4
:1048E0007B82FA8B7B8A1344B3F5803F02DB14484A
:1048F0000BF038FAFA8B7B8A1344FB83F86802F0DA
:1049000063FCBB69002BDFD13968786800F0BAF826
:104910000C4B1B88FA8B9A4202D90B480BF022FAF7
:10492000084B1A88FB8BD31A9AB2064B1A80FB8B62
:1049300018462037BD4680BD7CAF010088AF01001E
:104940009CAF0100BEE60020BCAF010080B58AB07C
:1049500000AF7860396000237B6100233B62002355
:10496000FB610023BB6100233B61284B1B687B621A
:1049700030E07B6A5A697B68DB689A420CD17B6ABB
:104980009A697B681B699A4206D17B6A9A897B681F
:104990009B889BB29A4214D03B6901333B613B6ACE
:1049A000002B04D17B6A3B62FB69BB6109E07B6A37
:1049B000DA7F3B6ADB7F9A4203D87B6A3B62FB6902
:1049C000BB617B6A1B68002B01D07B6AFB617B6A41
:1049D0001B687B627B6A002BCBD13B6A002B08D023
:1049E000B969386AFFF722FFF8607A69FB681344F7
:1049F0007B617A693B689A4202DA3B69012BACDC45
:104A00007B6918462837BD4680BD00BF944F002003
:104A100080B584B000AF78603960052001F042FFB6
:104A2000F860FB68002B10D139687868FFF78EFFBB
:104A300002463B68934203DC052001F033FFF86037
:104A4000FB68002B01D1002316E020220021F8682A
:104A500015F001F9FB680F22DA77094B1A68FB6839
:104A60001A60074AFB681360FB68083314227968F0
:104A7000184615F0EEF8FB6818461037BD4680BDA5
:104A8000944F002080B582B000AF786039600E4B43
:104A90001B687A689A4204D17B681B680A4A1360D3
:104AA00009E03B68002B02D108480BF05BF97B68FA
:104AB0001A683B681A607968052001F03BFF00BF67
:104AC0000837BD4680BD00BF944F0020E0AF010015
:104AD00080B58CB000AFF860B9607A600023BB622B
:104AE00001233B62BB685B68FB61FB695B889BB22F
:104AF000184612F045FB03467B83FB691B7803F0E5
:104B00000F03DBB29B007B767B7E9BB27A8B9A4253
:104B100002D24FF0FF3321E17B7E9BB27A8BD31A16
:104B20007B83FB69DB889BB2184612F029FB0346A6
:104B3000C3F30C039BB2DB00FB82BB685B68FB62C8
:104B4000FB6A00221A7000225A7000229A7000221A
:104B5000DA70FB6AFA8A9A80FA8A7B8B13449AB2DB
:104B6000FB6ADA80FB6ADB889BB2FA8A9A4202D936
:104B70004FF0FF33F2E0FB685B687B6268E07B6AC2
:104B80005B683B61FB6A9B889AB23B699B889BB2DE
:104B90009A4235D2FB6A7A6A1A60BB6A002B20D02F
:104BA000FB6A9B889AB2BB6ADB889BB29A4207D3A6
:104BB000FB6ADB889AB23B699B889BB29A4202D916
:104BC0004FF0FF33CAE0BB6ABA681A60BB6ADB8881
:104BD0009AB2FB6A9B889BB29A423DD000233B620B
:104BE0003AE0FB6ADB889AB23B699B889BB29A42A7
:104BF00002D94FF0FF33B1E0FB68BA685A602BE08E
:104C0000FB6A9B889AB23B699B889BB29A4202D10D
:104C10004FF0FF33A2E0FB6A9B889AB23B69DB88C6
:104C20009BB29A4202D24FF0FF3397E0BB6A002B4F
:104C300009D0BB6ADB889AB23B699B889BB29A42D7
:104C400001D000233B623B691B687B623B69BB620E
:104C50007B6A002B93D100E000BF7B6A002B25D13B
:104C6000BB6A002B18D0BB6ADB889AB2FB6A9B88B0
:104C70009BB29A4202D93B480BF074F8BB6ABA68FF
:104C80001A60BB6ADB889AB2FB6A9B889BB29A4225
:104C90000CD000233B6209E0FB685B68002B02D06C
:104CA00031480BF05FF8FB68BA685A607B68002BEC
:104CB00005D1FB689B7F03F00103002B4DD03B6ABD
:104CC000002B43D0FB685B68002B06D0FB685B6859
:104CD0005B689B889BB2002B02D000233B6235E0CF
:104CE000FB6ABB62FB6A1B687B6212E07B6A5B68E3
:104CF000FB62BB6ADB889AB2FB6A9B889BB29A42D2
:104D000002D000233B6207E0FB6ABB62FB6A1B68C0
:104D10007B627B6A002BE9D13B6A002B16D0FB68D3
:104D20005B68002B02D111480BF01CF8FB685B6834
:104D30005B68FA6A9A4202D10C480BF013F8FB6ADE
:104D40001B68002B02D00A480BF00CF83B6A002BC2
:104D500014BF01230023DBB200E0002318463037E4
:104D6000BD4680BDFCAF01001CB0010054B0010085
:104D700064B0010080B58EB000AF78607B685B687E
:104D8000BB62BB6A1B7803F00F03DBB29B00DBB294
:104D9000142B40F06D81BB6ADB889BB2184612F081
:104DA000EFF90346C3F30C039BB2DB00FB84BB6A41
:104DB0005B889BB2184612F0E3F90346BB84BB6ADA
:104DC0001B7803F00F03DBB29B0087F8233097F8C2
:104DD00023309BB2BA8C9A42C0F04C8197F82330B2
:104DE0009BB2BA8CD31ABB84786812F00AFE0346D1
:104DF0003B849A4B1B881A463B8C13440A2B10DDCC
:104E00003B8C1946B86AFFF7A1FD0346002B00F062
:104E10003381924B1B881A463B8C13440A2B00F3B8
:104E20002B818F4B1B683B6315E03B6B5A69BB6A58
:104E3000DB689A420CD13B6B9A69BB6A1B699A4248
:104E400006D13B6B9A89BB6A9B889BB29A4206D07B
:104E50003B6B1B683B633B6B002BE6D100E000BF64
:104E60003B6B002B09D13B8C1946B86AFFF7D0FD8C
:104E700038633B6B002B1CD101E1BB6ADB889BB222
:104E8000184612F07DF90346C3F30C03002B10D132
:104E90003B6BDB89184612F073F90346C3F30C032E
:104EA000002B06D03B6B08331422B96A184614F065
:104EB000D0FEBB6ADB889BB203F02003002B0CBF43
:104EC00001230023DBB2FB61FB69002B0ED0FA8CBF
:104ED000BB8C13447B837A8BFB8C9A42C0F0A480FA
:104EE0007B8B4FF6EB72934200F29E80FA697968F1
:104EF000386BFFF7EDFD78617B69B3F1FF3F00F0A0
:104F00009580564B1A883B8C13449AB2534B1A80A7
:104F1000FB69002B0DD0FA8CBB8C13447B823B6B5E
:104F20007A8A9A833B6B9B7F43F00103DAB23B6B37
:104F30009A777B69012B75D13B6B9B8B14333B823A
:104F40003B6B5B685B681B68FB623B6B5B685B6829
:104F5000BB623B6B083314221946B86A14F079FE21
:104F60003B8A184612F00CF903461A46BB6A5A806F
:104F7000BB6A00229A710022DA71BB6A00229A721F
:104F80000022DA721421B86A12F063FB03461A4653
:104F9000BB6A5A813B6B5B687B600DE0FB6A5B68B8
:104FA000FB601421F86A02F0C5F8F96A786802F02B
:104FB000A5F9FB681B68FB62FB6A002BEED1284B4E
:104FC0001B683A6B9A4202D100237B6310E0244BAA
:104FD0001B687B6307E07B6B1B683A6B9A4206D0C9
:104FE0007B6B1B687B637B6B002BF4D100E000BF05
:104FF000796B386BFFF746FD786812F002FD0346C7
:105000003B84164B1B883A8C9A4202D915480AF009
:10501000A9FE124B1A883B8CD31A9AB20F4B1A80F6
:105020007B6830E000232EE000BF00E000BF3B6B58
:10503000002B02D10C480AF095FE3B6B5B68002BFD
:105040001CD1074B1B683A6B9A4202D007480AF002
:1050500089FE0021386BFFF715FD10E0BEE6002049
:10506000944F002088B00100A4B00100B0B001004E
:1050700000BF04E000BF02E000BF00E000BF7868AE
:1050800002F0A2F8002318463837BD4680BD00BFA5
:1050900080B582B000AF78607B68002B02D10548F4
:1050A0000AF060FE7968062001F044FC00BF083772
:1050B000BD4680BD68AC010080B584B000AF7860AB
:1050C0007B68FB60FB68002B02D10D480AF04AFEAA
:1050D000FA687B689A4202D00A480AF043FEFB68ED
:1050E0005B69002B04D0FB685B69184602F06CF822
:1050F000F868FFF7CDFF00BF1037BD4680BD00BF89
:10510000D0B00100DCB0010080B594B002AFF8600F
:10511000B9607A600023A7F84630BB689B8C143BCB
:10512000002B00DA0733DB107B871423FB87FB6837
:105130005B687B637B6B3B633B6B1B7803F00F030C
:10514000DBB29B00DBB2142B02D06FF005030FE142
:10515000FB685B89132B08D8874810F0AAFD8748A5
:1051600010F0A7FD6FF0050302E13B6BDB889BB2FB
:10517000184612F005F80346BB87BB8FC3F30C0338
:10518000A7F84030BB8F03F40053FB62FB681B8918
:10519000143BA7F84230E1E07B8FDB009BB2B7F80D
:1051A0004220934228BF13467B854FF4207214217E
:1051B0000E2001F0D1FD78627B6A002B00F0D580D3
:1051C0007B6A5B89132B02D86D480AF0CBFD7B6AA2
:1051D0005B681422796B184614F03BFD7B6A5B68B0
:1051E0003B637B8DA7F8443060E0FB685A89FB8FF6
:1051F000D31AFB83FB685B89FA8F9A4202D9614814
:105200000AF0B0FDFA8BB7F84430934228BF13463A
:10521000A7F84630B7F84630002B05D10023FB87AE
:10522000FB681B68FB6041E011F0A2FFB861BB693D
:10523000002B03D1786A01F0C7FF97E0B869FB68DB
:105240005A68FB8F1344B7F84610B7F8462001920E
:10525000009303464122002012F05DFB78617B69D8
:10526000002B06D1B869FFF713FF786A01F0ACFF95
:105270007CE0F86802F022F8BB69FA685A61BB6901
:10528000414A1A617969786A02F038F8B7F844201F
:10529000B7F84630D31AA7F84430B7F84430002B9B
:1052A00004D00023FB87FB681B68FB60B7F8443021
:1052B000002B9AD1FA8FB7F846301344FB87BB68AE
:1052C0009B8CA3F11302B7F842309A42CCBF012362
:1052D0000023DBB23B62B7F84030C3F30C03BB875B
:1052E0003B6A002B02D0FB6A002B03D0BB8F43F438
:1052F0000053BB87BB8F184611F042FF03461A4686
:105300003B6BDA807B8D14339BB2184611F038FF6B
:1053100003461A463B6B5A803B6B00229A7200226E
:10532000DA721421386B12F094F903461A463B6B7B
:105330005A81BB685B697A68796AB8689847786A05
:1053400001F042FFB7F842207B8DD31AA7F8423014
:10535000B7F840207B8F1344A7F84030B7F84230AD
:10536000002B7FF419AF002302E000BF4FF0FF33A2
:1053700018464837BD4680BDE8B001003CA7010093
:1053800004B1010024B10100B950000080B483B021
:1053900000AF03463960FB71FB79012B0FD83B68E6
:1053A000002B06D0FB7909493A68126841F823209E
:1053B00005E0FB790549064A126841F8232000BF41
:1053C0000C37BD465DF8047B704700BF18540020C1
:1053D00068AF010080B586B000AFF860B9607A6050
:1053E000BB68FF2B28BFFF233B610023FB753AE01E
:1053F000FA7D214913461B0113441B010B440A3358
:105400001B78032B2CD1FA7D13461B0113441B017F
:105410001033194A13443A691946F86811F0DEFE50
:105420000346002B1CD1FA7D134913461B0113447C
:105430001B01CA183B69134410331B78002B0FD192
:105440007B68002B0AD0FA7D0B4913461B011344DD
:105450001B010B4404331A687B681A60002307E0C1
:10546000FB7D0133FB75FB7D032BC1D96FF00F036F
:1054700018461837BD4680BDA84F002080B590B0B3
:1054800000AF0346FB71FA7913461B0113441B015D
:105490006A4A13443B633B6BDB7A012B02D96848B1
:1054A0000AF060FC3B6BDB7A1A46664B53F82230FD
:1054B000002B09D1FB790021184600F055F93B6B10
:1054C00000229A720023B4E03B6B1033184614F0AC
:1054D0001FFC03469BB212339BB24FF42072194655
:1054E000362001F039FCF862FB6A002B00F0958051
:1054F00007F110030C220021184614F0ACFB3B6BA3
:105500001B89184611F03CFE03463B820123BB7405
:105510004FF48073BB8207F110030C221946F86A1E
:1055200002F01AF93B6B1033BB63BB6B013BBB63EF
:105530000C23BB87BB6B0133BB63BB6BBB6200231C
:1055400087F8373007E097F83730013387F837307E
:10555000BB6B0133BB63BB6B1B782E2B03D0BB6BC8
:105560001B78002BEFD1BA6BBB6AD31AFB84BA8FBE
:1055700097F8373013444FF6FE72934253DC97F896
:105580003720BB8F1946F86A12F0D7FABB8F013368
:105590009BB2FA8CB96AF86A02F064F997F837306E
:1055A0009AB2BB8F13449BB20133BB87BB6B1B7892
:1055B000002BBFD1BB8F00221946F86A12F0BDFA4A
:1055C000BB8F0133BB874FF48073BB814FF4807373
:1055D000FB81BB8F07F10C010422F86A02F042F94B
:1055E0003B6BDB7B87F8253035237B843B6BDB7A99
:1055F0009B00144A1344FB6197F82530124A52F875
:1056000023007B8CFA69F96A08F032F8034687F8C0
:105610003F30F86A01F0D8FD02E0FF2387F83F3001
:1056200097F93F3005E000BFF86A01F0CDFD6FF05B
:10563000050318464037BD4680BD00BFA84F002077
:1056400034B1010018540020984F002080B584B078
:1056500000AF2E2012F089FBB860BB68002B01D18F
:10566000002326E00AF08EFB0346FB80FB88B3F59F
:10567000806F08D3FB881A461049B86808F0B2F961
:105680000346FB7301E0F823FB7397F90F3013F126
:10569000080FE7D097F90F30002B04D0B86808F056
:1056A000B5FA002305E000220549B86808F08EFA33
:1056B000BB6818461037BD4680BD00BF68AF01000B
:1056C000295B000090B583B000AF0023FB7108E0B8
:1056D000FB79234A52F82330002B06D0FB790133A3
:1056E000FB71FB79032BF3D900E000BFFB79032B9F
:1056F00011D8FC79FFF7AAFF0346194A42F8243073
:10570000FB79174A52F82330002B04D0154AFB7955
:105710001370FB7920E00023FB71124B1B780133DF
:10572000BB7115E0BB79032B01D90023BB71BB7999
:105730000B4A52F82330002B04D00A4ABB7913706D
:10574000BB7909E0FB790133FB71BB790133BB7194
:10575000FB79032BE6D9042318460C37BD4690BDD0
:10576000984F0020CEE6002090B585B000AF0346EC
:105770003960FB710023FB733DE0FA7B5749134608
:105780005B0013449B000B441B68002B30D0FA7B5A
:10579000524913465B0013449B000B4408331B78AB
:1057A000FA799A4224D1FA7B4C4913465B001344A0
:1057B0009B000B441C68FA7913461B0113441B0120
:1057C0001033474A9818FA7B444913465B00134448
:1057D0009B000B4404331B681A463968A047FA7BC8
:1057E0003E4913465B0013449B000B4400221A60A1
:1057F000FB7B0133FB73FB7B032BBED90023FB73C5
:1058000031E0FA7BFB799A4229D0FA7B344913467E
:105810001B0113441B010B440A331B78022B1FD1BD
:10582000FA7B2F4913461B0113441B010B440F3312
:105830001978FA792A4813461B0113441B010344C3
:105840000F331B7899420BD1FA79254913461B0176
:1058500013441B010B440F3304221A7006E000BFEF
:10586000FB7B0133FB73FB7B032BCAD9FA791C4901
:1058700013461B0113441B010B440F331B78032BEE
:1058800027D8FA79164913461B0113441B010B4410
:105890000F331B781A46134B53F82230184608F082
:1058A000B5F9FA790E4913461B0113441B010B4449
:1058B0000F331B7819460B4B002243F82120FA794D
:1058C000074913461B0113441B010B440F330422E9
:1058D0001A7000BF1437BD4690BD00BFE8530020CA
:1058E000A84F0020984F002080B582B000AF0AF08A
:1058F00049FA0346BB800023FB711AE0FA7911498B
:1059000013461B0113441B010B440A331B78022B63
:105910000CD1FA790B4913461B0113441B010B44AC
:1059200008331B88BA889A4200D1E0E7FB7901333B
:10593000FB71FB79032BE1D9BB8818460837BD46BC
:1059400080BD00BFA84F002080B485B000AF786054
:105950000023FB737B68002B0DD07B68DB7A002B68
:1059600009D17B68DB7A0133064A52F82330002BD9
:1059700001D00123FB73FB7B18461437BD465DF84D
:10598000047B70471854002080B584B000AF0346F4
:10599000FB71FA7913461B0113441B01444A13445B
:1059A000FB60FB79032B02D942480AF0DBF9FB6864
:1059B0009B7A032B6FD801A252F823F09F5A000064
:1059C000CD590000FF590000755A0000FFF78CFF09
:1059D00003461A46FB681A81FB6802229A72FB682A
:1059E0000022DA72FB6801221A73FB6800225A73E4
:1059F000FB791846FFF742FD0346FB7254E0FB6853
:105A00001B7B013BDAB2FB681A73FB681B7B002B24
:105A100047D1FB685B7B0133DAB2FB685A73FB68E2
:105A20005B7B042B1BD1F868FFF78EFF0346002B2E
:105A30000CD0FB68DB7A0133DAB2FB68DA72FB6800
:105A400001221A73FB6800225A730CE0FB790021D3
:105A50001846FFF789FEFB6800229A7224E0FB6873
:105A60005A7BFB681A73FB791846FFF707FD03465C
:105A7000FB7216E0FB681B68002B08D0FB681B68F4
:105A80005A1EFB681A60FB681B68002B0BD1FB6871
:105A900000229A7207E008480AF064F904E000BFA7
:105AA00002E000BF00E000BF00BF1037BD4680BD70
:105AB000A84F00204CB1010068B1010080B584B04E
:105AC00000AF03463960FB71FA7913461B0113449A
:105AD0001B01134A1344FB60FB6803229A72FB68A4
